:020000040002F8
:10600000904C0020F9620200016302000363020069
:10601000056302000763020009630200000000003C
:106020000000000000000000000000000B63020000
:106030000D630200000000000F6302001163020004
:1060400031660200136302009168020013630200CC
:106050001363020013630200196402001363020059
:106060001363020013630200136302001363020050
:106070001363020013630200136302001363020040
:1060800013630200896602001363020013630200B7
:10609000AD66020013630200B166020013630200E2
:1060A0001363020013630200136302001363020010
:1060B00013630200136302000000000000000000F0
:1060C00013630200136302001363020013630200F0
:1060D00013630200136302001363020013630200E0
:1060E0001363020013630200136302000000000048
:1060F00000000000136302000000000013630200B0
:10610000000000000000000000000000000000008F
:10611000000000000000000000000000000000007F
:10612000000000000000000000000000000000006F
:10613000000000000000000000000000000000005F
:10614000000000000000000000000000000000004F
:10615000000000000000000000000000000000003F
:10616000000000000000000000000000000000002F
:10617000000000000000000000000000000000001F
:10618000000000000000000000000000000000000F
:1061900000000000000000000000000000000000FF
:1061A00000000000000000000000000000000000EF
:1061B00000000000000000000000000000000000DF
:1061C00000000000000000000000000000000000CF
:1061D00000000000000000000000000000000000BF
:1061E00000000000000000000000000000000000AF
:1061F000000000000000000000000000000000009F
:10620000DFF80CD000F0CAF800480047297F0200F0
:10621000904C002030B4044654E8000F0D4644E88A
:106220000053002BF8D1156030BC704730B40446E1
:1062300054E8000F40EA010544E80053002BF7D171
:10624000156030BC704730B4044654E8000F00EAD3
:10625000010544E80053002BF7D1156030BC7047AE
:1062600030B4044654E8000F80EA010544E80053C6
:10627000002BF7D1156030BC704730B4044654E8A9
:10628000000F00EB010544E80053002BF7D1156027
:1062900030BC704730B4044654E8000FA0EB010551
:1062A00044E80053002BF7D1156030BC704770B440
:1062B00004464FF0000054E8006F0D68AE4207BF7F
:1062C00044E80023012044E800630E60002B1CBF5B
:1062D0000020F0E770BC704730B4044654E8000F6B
:1062E00088422CBF451A054644E80053002BF5D1DF
:1062F000156030BC704700000648804706480047DC
:10630000FEE7FEE7FEE7FEE7FEE7FEE7FEE7FEE765
:10631000FEE7FEE7B566020001620200202A04DB08
:10632000203A00FA02F1002070479140C2F12003A8
:1063300020FA03F31943904070470000004870476B
:106340007CAE020040EA01039B0703D009E008C9C4
:10635000121F08C0042AFAD203E011F8013B00F82A
:10636000013B521EF9D27047D2B201E000F8012B76
:10637000491EFBD270470022F6E710B513460A46C5
:1063800004461946FFF7F0FF204610BD421C10F8E6
:10639000011B0029FBD1801A70470000064C074DF5
:1063A00006E0E06840F0010394E8070098471034E5
:1063B000AC42F6D3FFF728FF80B50200A0B502007B
:1063C00070B58C1810F8015B15F0070301D110F8B7
:1063D000013B2A1106D110F8012B03E010F8016BE4
:1063E00001F8016B5B1EF9D12B0705D40023521E67
:1063F0000DD401F8013BFAE710F8013BCB1A921CCF
:1064000003E013F8015B01F8015B521EF9D5A142CC
:10641000D8D3002070BD00002DE9F04F00268DB0CC
:10642000DFF8A081B14604964FF480750124374609
:106430000596284602F0A8FB38B1D8F8040320429C
:1064400003D0284602F096FB26432D1D64007F1CD6
:10645000ADB2082FEDD34FF4BE74204602F094FB8A
:1064600048B1204602F086FB46F0004604AA02210D
:10647000002002F069FB544C16F0FF0F15D00127E5
:10648000002537420DD008EB8501D1F81005D1F871
:106490001015C0F3052054F82520C1F3014102B1C5
:1064A00090477F006D1C082DEBD3002E7EDA002074
:1064B000CDF82890411E0DF1100B07AACDF82C90B5
:1064C00042F82010401C91460228F9D300252E46A0
:1064D000A11911F8607F91F9000027F0C008401C55
:1064E00040D007A9404601F053FF40B34FEA971A46
:1064F000404601F0C1F854F820701FB1BAF1030F03
:1065000003D006E0BAF1030F2CD10AA9404601F0EE
:1065100047FF02A8CDF8088002F0BAFA029900EB12
:106520008100D0F8000704A9C0F301400290404662
:1065300001F02EFF0028029802D0022802D011E0BC
:1065400003280FD1BAF1030F08D10298022833D0E3
:106550000221404602F076FA6D1CEDB217B15146A9
:106560004046B847761C042EB2D3002D21D001AA94
:106570000221002002F0E8FA00205A460DF1040141
:1065800052F8206051F82030B34217D000200AAEF4
:106590004FEA090351F8207042F8207056F8207035
:1065A00043F82070401C0228F4D300E001E0002DE5
:1065B0008CD10DB0BDE8F08F0321CAE7401C022842
:1065C000DED3F6E7006000406825002000F01F02DF
:1065D000012191404009800000F1E020C0F88012C4
:1065E000704700F01F02012191404009800000F136
:1065F000E020C0F80011704700F01F020121914017
:106600004009800000F1E020C0F8001270474907FF
:10661000090E002806DA00F00F0000F1E02080F8F3
:10662000141D704700F1E02080F80014704700004E
:1066300070B54FF48076304601F0EAFF114CB50595
:1066400060B1304601F0EBFF0120C5F80803607926
:1066500020B9012060712168002088474FF48276BC
:10666000304601F0D5FF00280AD0304601F0D7FFB0
:106670000220C5F808032168BDE8704001200847E2
:1066800070BD00001823002007480021C0F8401109
:10669000C0F84411C0F84811C0F84C11C0F80011FE
:1066A000C0F8041103F074BF0010014003F0BEBE37
:1066B00002F0A6BF30B54FF0805000228300D0F822
:1066C0003011C3F80C21C3F81021624B1A60624BE1
:1066D0001B68624C2360604B1B1D1B68241D2360DC
:1066E0005D4B08331B68241D23605B4B0C331B6818
:1066F000241D2360584B10331B68241D2360564B08
:1067000014331B68241D2360534B18331B68534CF0
:1067100020342360504B1C331B68241D23604E4BD8
:1067200020331B68241D23604B4B24331B68241D1E
:106730002360494B28331B68241D2360464B2C33B0
:106740001B68241D2360444B30331B68434C40348A
:106750002360414B34331B68241D23603E4B383388
:106760001B68241D23603C4B3C331B68241D2360A5
:10677000394B40331B68241D23600124082902D1B2
:10678000D0F8343113B1082904D006E0354B344930
:10679000196005E0D0F8343113B1082904D006E0BF
:1067A000314BFB21196005E0D0F8343113B10829D1
:1067B00008D00EE090F858322C48016863F30301CA
:1067C000016002E0D0F834311BB929494FF4007060
:1067D000086028480168C90702D06FF00101016014
:1067E0002548016841F470010160BFF34F8FBFF38A
:1067F0006F8F4FF01021D1F80002002803DBD1F891
:106800000402002822DA1D4B1C601D480468002C7D
:10681000FCD01224C1F800420568002DFCD0C1F85C
:10682000044201680029FCD01A6001680029FCD0EC
:10683000BFF34F8F10487C380168124A01F4E061C1
:1068400011430160BFF34F8F00BFFDE70F490E48B2
:10685000086030BD380500400404001020C5004029
:10686000488103008C56004018F50040E40E0040BB
:10687000409602400004004088ED00E004E501403D
:1068800000E401400400FA050090D003DC2300205E
:1068900001480068004700002023002002E008C8EB
:1068A000121F08C1002AFAD170477047002001E08A
:1068B00001C1121F002AFBD17047000001212028CE
:1068C00003DA81400548014003E0402802DA20381D
:1068D000814009B10120704700207047FC06FFBDD0
:1068E00030B52548A5B03C21006824902348807C21
:1068F0008DF892006846FFF73EFD02208DF80000FB
:1069000001248DF8024006208DF803003C210FA8D9
:10691000FFF731FD24A81A4D1490ADF84C402A1D04
:106920006846296800F032FA08B100F0DFF8144A2E
:106930000FA80C32A96800F029FA08B100F0D6F8C7
:1069400018211EA8FFF717FD00208DF88D408DF847
:106950007840ADF884001F908DF88C0040200849E5
:1069600020901EAAA1F10C0072DF002801D000F0D7
:10697000BDF825B030BD000064AB02001424002037
:10698000EC220020064810B50121007873DF08B121
:1069900000F0ACF8BDE81040002000F025BD00007C
:1069A000E022002070B50024084D05E0686810F86A
:1069B000340002F001FF641C28788442F6D30448B6
:1069C0004068BDE8704000F01DB900002823002099
:1069D000A8AB020070B50024064D06E068680121EE
:1069E00010F8340002F00CFF641C28788442F5D3C0
:1069F000002070BD28230020F8B515460C46064639
:106A0000052A01D20720F8BD02F0F2FF18B902F002
:106A1000B5FF0028F7D1124900224E600C708D603E
:106A2000C1E90422C1E906220E4D0DE006EBC400C7
:106A30002968009181788DF8011000780A4A69462A
:106A400002F02AFF0028DED1641EE4B2EED2BDE8D7
:106A5000F84004480021054A001D00F053B800002A
:106A600028230020A8AB0200357A020049790200F1
:106A700072B602F027FB00BF02F066F90028FBD1D6
:106A8000104C0121208801EB00400FA102F06CFAAC
:106A900010480068C00700D000BE2088022101EB2A
:106AA00000400DA102F060FABFF34F8F0948E438AF
:106AB00001680D4A01F4E06111430160BFF34F8F9B
:106AC00000BFFDE704240020466174616C206572FC
:106AD000726F7200F0ED00E053797374656D20728F
:106AE00065736574000000000400FA050EB500210E
:106AF0000091CDE901106A4644F20100FFF7B8FFAA
:106B00000EBD0000074B9B7823B12AB120B100686D
:106B1000037C1BB108207047072070474174426115
:106B2000002070474426002070B503F0F1FA1048A9
:106B300000240B21047044700E4D817014206C6091
:106B40002C706C70FFF742FD07211420FFF75FFDEA
:106B50001420FFF746FD0848046007211120FFF7C5
:106B600056FD0548001F0068A860002070BD0000A9
:106B70004426002048230020081501402DE9FC4749
:106B8000DFF8789099F8023073B368B3052902D220
:106B90000720BDE8FC87436933B3437C012B25D034
:106BA000002704460025884616468DF800506846A2
:106BB00000F038F801A803F055FFC8B101210170B9
:106BC0000F4944600968C0E90218C0E904769DF8DD
:106BD000040089F801009DF8000000F047F8142037
:106BE000FFF70AFD2846D4E70820D2E70F46D8E78A
:106BF00004259DF8000000F039F8F3E74426002052
:106C0000041501400649897839B130B1416921B193
:106C100000210174022103F097BC08207047000096
:106C20004426002030B5EFF3108172B60D4A946807
:106C3000012324B10370002900D162B630BD9360F6
:106C40004FF0E023D3F88051074C25401560C3F87E
:106C50008041D3F8844154605A17C3F8842100223C
:106C60000270E8E750270020FC06FFBD0B498A6848
:106C7000002A11D000280FD1EFF3108072B60B68F4
:106C80004FF0E022C2F800314B68C2F80431002214
:106C90008A60002800D162B67047000050270020AB
:106CA00070B5054608680C46411C04D001F025FF6C
:106CB000206801F0B3FE6068411C02D0002101F0A1
:106CC0009BFE2968A069C1F82405607D227D2968A2
:106CD0001043C1F86C05D4E900122868C0F81425E7
:106CE000C0F80C15207D012814D1A068411C02D0E9
:106CF000002101F081FEE068411C04D001F0FDFE9E
:106D0000E06801F08BFED4E902122868C0F808257B
:106D1000C0F8101570BD70B5054608680C46411CDA
:106D200004D001F0F4FE206801F082FE6068411C8E
:106D300002D0002101F069FE2968A069C1F824058C
:106D4000607D217D2A680843C2F86C05D4E90012F1
:106D50002868C0F80C15C0F81425207D012814D12E
:106D6000A068411C02D0002101F04FFEE068411CE8
:106D700004D001F0CCFEE06801F05AFED4E9021222
:106D80002868C0F80825C0F8101570BD2DE9FC472B
:106D9000002517880646158090F82D001446894670
:106DA00030B13A462146484600F0E6F8051E09D1C2
:106DB000B0784FF00C0A18B32088C846001DB842BE
:106DC00002D95046BDE8FC87684679DF0028F9D132
:106DD0002088032108F8001020881921401C80B267
:106DE000208008F800102088401C80B2208000EB32
:106DF0000801BDF8000003F08FFD218808442080C1
:106E0000F0780222C8B1218896F9033001F1030C11
:106E10004846BC45D5D8425421884FF0010C491C46
:106E200089B2218000F801C02188491C89B22180E3
:106E300009F801302088401C20807068B8B1218892
:106E400090F9003001F1030C4846BC45B9D84254D2
:106E500021880A22491C89B2218042542188491C78
:106E600089B2218009F801302088401C20803089B7
:106E700050B1CDE900474B460622022106F1080039
:106E800003F008FE051E9DD1308A50B1CDE90047C0
:106E90004B460722032106F1100003F0FBFD051EFF
:106EA00090D1308B50B1CDE900474B4615221421CB
:106EB00006F1180003F0EEFD051E83D1306A30B1F3
:106EC0003B462246494600F076FC051EDBD1706A3F
:106ED00030B13B462246494601F0ECF8051ED2D1BE
:106EE00096F82C0038B13B4622464946304603F01E
:106EF000DBF9051EC7D1307838B13B4622464946FA
:106F0000304601F05DF9051EBDD128465AE7000064
:106F100070B5040012D001461C221448FFF712FA83
:106F20001248134D0560206850B17ADF002806D161
:106F30002068016829604068686005E00E2070BD27
:106F40000B487BDF0028FAD108484FF6FF71143850
:106F5000084A20F8041B0549343901600021FFF775
:106F6000D1FD0028EBD0032070BD0000C02400201C
:106F7000FC220020D9A902007CB5054608880C46F1
:106F80000930904201D90C207CBD68466DDF002895
:106F9000FAD121880820685420881B21401C80B227
:106FA000208029542088401C80B220802844DDF8AD
:106FB00001100160BDF8051081802088801D80B21D
:106FC00020809DF80010490800D001212954208814
:106FD000401C208000207CBDF8B5314D028804465D
:106FE0006E88212A47D011DC2E484FF00301102A69
:106FF000008801EB004013D0112A2AD0132A43D174
:1070000000231A46852130467FDF1CE03B2A42D010
:10701000522A3AD0562A37D18088132176DF12E0DF
:1070200021A101F0A1FF012000F0DEF9002000F015
:10703000D3F9A18869801F4801F072FA08B1FFF7FF
:1070400055FDFFF7C7FC00281ED0BDE8F840FFF74C
:107050004DBD19A101F088FF012000F0BDF94FF6E8
:10706000FF706880FFF79EFC08B1FFF73FFDBDE8A9
:10707000F840FFF787BC00200090A08869468FDFAA
:10708000002801D0FFF732FDF8BD00231A4619464B
:107090003046B1DFD7E78088132176DFD3E70000E1
:1070A000E022002004240020436F6E6E6563746547
:1070B0006400000040240020446973636F6E6E65B5
:1070C00063746564000000002DE9F04701883B4EC1
:1070D00040F2F3194FF6FF7510291BD011293ED04D
:1070E000122954D0502946D1C188F289841D914279
:1070F00041D1618902293ED18688304600F0DCFC0E
:10710000050038D004F10C0000F038F9A8B3294686
:1071100030464EE0C17B8788044601292BD1A84622
:10712000284600F0C9FC050017D02F8000202872E7
:10713000234843464A460168C5F80A104068C5F826
:107140000E0004F1100105F10A0000F079FD6872EB
:10715000F08900280FD129462AE0042013E0808816
:1071600000F0AAFC040006D06068FFF74BFD08B1F0
:1071700003F072F82580BDE8F087FFE76868FFF745
:1071800041FD0028F7D0BDE8F04703F065B88788D7
:107190000646384600F090FC0400ECD02B464A46E8
:1071A00006F1080104F10A0000F04AFD6072214670
:1071B0003846BDE8F04700F045BB0000C024002081
:1071C000FC2200202DE9F04F0746858802883D48C3
:1071D000012197B08346102A09D0112A49D01A2AD2
:1071E0006CD1387AB1EB101F45D2012244E0354C06
:1071F000083CA068C0430B9061680BA801F05AF8E6
:107200000B990CA800F0B8FA2C220CA96846FFF7DD
:1072100099F80026E946A04610E000BF09EB4600B9
:107220005FF00004B0F804A008EB84005146001D94
:1072300001F014F8641C1D2CF6D3761C0098B042A3
:10724000ECD8142D05D317B00420BDE8F04FFFF79C
:107250004DBC2946584601F017F8294608F10400AC
:1072600001F012F8F87B012828D016482946001DA5
:1072700015E029461AE000220221B1EB101F01D2CD
:10728000012600E000260F49083901F11000041D15
:10729000294682B100F0F8FF36B12946204617B0E2
:1072A000BDE8F04F00F0F0BF2946204617B0BDE81A
:1072B000F04F00F0D3BF00F0D1FFF5E717B0BDE805
:1072C000F08F0000E424002030B50446134B85B055
:1072D00008680D4660610FCB8DE80F0004F11201C4
:1072E000684662DF002816D1A07C8DF8120041F2BA
:1072F0002350ADF81000224604A90120A8DF002881
:1073000009D12946204600F0E3F8002803D1294698
:10731000204600F0B7FC05B030BD000088AB02008D
:1073200030B40288502A10D1034630F8062F4C881A
:10733000A2420AD14289012A07D14C69002C04D00B
:10734000027B9888A44630BC604730BC704707B5C4
:1073500086B0012200230093ADF810200193029320
:1073600003938DF802204989ADF8001008A9039114
:1073700004A902916946AEDF09B000BD007800F0B3
:10738000010070472DE9FC410646C0074FF000059B
:107390000ED0104F00240122385D009500231146C5
:1073A000019501F0B3FA641C042CF4D300F024F826
:1073B000B0070DD5074E0024361D0022305D032393
:1073C00000951146019501F0A1FA641C042CF4D338
:1073D000BDE8FC8168AB02000249085C012101F0B4
:1073E000A0BB000068AB02000249085C002101F06C
:1073F00098BB000068AB020010B500242046FFF7E0
:10740000EBFF641C042CF9D310BD00002DE9F843F8
:107410000546861C00208DF8000090460F464FF070
:1074200001096846FFF7FEFB1B4C20683860D4E971
:107430000001401AA16804F21C47081A0EE001215D
:10744000384600F031FF00F021FD0146384600F0DB
:107450002BFFD4E90001401AA168081A401C86429B
:10746000EDD8B8F1000F03D0052065F3891002E0D4
:10747000062065F39F50A2682168114004EB81014A
:10748000C8602068304420609DF80000FFF7EEFBE4
:107490004846BDE8F88300006828002030B48268C0
:1074A0000468531C8360A154D0E901128A4202D3BC
:1074B00030BC01F032B930BC70470000034803C84B
:1074C000814201D1012070470020704768280020C8
:1074D00030B58FB00024054607949DF81C001C2190
:1074E00020F00F00401C20F0F00010308DF81C0040
:1074F0009DF81D0020F00F00401C20F0F00010301F
:107500008DF81D009DF81E0020F00600801C8DF8EF
:107510001E006846FEF72FFF9DF80000019440F022
:1075200012008DF8000007A8CDE9044003940694EA
:10753000A87C8DF83A0041F22450ADF838000D9443
:107540009DF83400142120F00F00401C20F0F000C2
:1075500010308DF834009DF8350020F0FF008DF8D4
:1075600035009DF8360020F00600801C20F0190040
:107570008DF8360008A8FEF7FEFE0EA808900DA8AC
:1075800009900120ADF82800ADF82A40ADF82C0094
:107590000C94288805F10A0308AA6946AADF0FB0EF
:1075A00030BD000010B50C460B2819D10F4803213F
:1075B000008801EB00400EA101F0D6FC14482246E1
:1075C00012494088FFF7C3FE00280DD0A0F54051B6
:1075D000023909D0082807D043F20141884203D07C
:1075E000BDE81040FFF782BA10BD0000042400205F
:1075F00053656E6420627574746F6E207374617469
:1076000065206368616E67652E0000001424002009
:10761000E022002005494FF0FF32082841F82020E1
:1076200002D3084480F858207047000068250020E5
:10763000F0B54FF0FF3512B10023082601E0082312
:107640000C260C4C05E000BF54F823707F1C04D0BE
:107650005B1CB342F8D32846F0BD26185DB286F80D
:10766000305044F82310002AF5D1E11881F8580071
:10767000F1E70000682500200249084490F9300035
:10768000704700006825002070B5084C050009D03F
:1076900010342168002907D008682060496828460E
:1076A0008847F6E70834F4E770BD00005425002051
:1076B000054A012120B1012805D19170FFF7E4BFEF
:1076C00051700020FAE77047542500202DE9F05F43
:1076D00026484168F1B3DFF898B00E688146DBF8C0
:1076E000004087688078E11B21F07F45ED1CB0B930
:1076F000DFF880804FF48030C8F84403C8F80403F2
:107700001120FEF763FF1120FEF76BFF4FF0010A17
:10771000C8F800A02F2002F047F889F802A0B5426F
:1077200000D23546124BE8193C3320F07F401860F8
:10773000DBF800105A46091B21F07F41001B20F0A6
:107740007F40C91C81420FD9106818602F2002F0B9
:107750002BF800E004E0BDE8F05F1120FEF74CBF1D
:10776000BDE8F05F02F0D4BCBDE8F09F48230020E4
:10777000041501400010014073B58CB0064600208E
:1077800000900D9880B100246D4621460DA800F0B0
:1077900070FD30B1009805EB400084800098401CDB
:1077A0000090641C142CF0D32C2269463046FEF75E
:1077B000C9FD0EB070BD2DE9F04117880646B81D11
:1077C00014460D46984202D90C20BDE8F08131885C
:1077D000072206290AD34FF4486C4FF6FF73614520
:1077E00001D9994202D17088062801D21046ECE7EF
:1077F000604501D99842F9D1994203D0984201D00D
:107800008142F3D80520E85520881221401C80B21F
:10781000208029542088401C80B220804119308863
:1078200003F07AF82188084480B2208041197088DA
:1078300003F072F82188084420800020C5E7FFF794
:1078400055B9000038B54A7A0F4B62B100220A726E
:107850005969002906D001228DF80020ADF80200F8
:107860006846884738BD0A7A62B19B684C68024610
:1078700019462046FFF782F90028F3D0BDE83840CA
:1078800002F0EABC5B68F1E7C0240020F0B587B0E5
:10789000074600200490ADF810100590ADF81210C6
:1078A0000190029001AA04A9384690DF060022D078
:1078B00001F020FF114C0346012520883A4605EBD4
:1078C00000400F4901F05BFBBDF8042012B9BDF880
:1078D000060038B12088BDF8063005EB004009A14C
:1078E00001F04DFBBDF808202AB12088154905EBB1
:1078F000004001F03DFB07B03046F0BDE023002022
:1079000080AE020054686520726571756573746598
:10791000642054582F5258207061636B6574206C3A
:10792000656E67746820697320746F6F206C6F6E6A
:10793000672062792025752F2575206F6374657423
:10794000732E0000CCAE02002DE9F0470025DFF8D1
:107950008C803CE06068002100EBC5060120327895
:107960009146FEF7DBFCD4E9062300EA020701EAB0
:10797000030C57EA0C0728D082438B434846C4E9DE
:10798000062301F0F3FF3278824691460120002160
:10799000FEF7C4FCD4E9042300EA020401EA030769
:1079A0004A4650460021FEF7B9FC44404F403C4354
:1079B0000BD17078012801D0012100E0002172680C
:1079C00081EA0A010AB1484690476D1CEDB298F869
:1079D000000044468542BDD3BDE8F087282300203F
:1079E00010B50021024800F070FC80F3100010BDBB
:1079F000842C00200E4910B50A784C780023A2424E
:107A000012D0521CD2B20A70022A00D10B70084A5E
:107A10000B780C3252F8232002608868104420F062
:107A20007F408860012010BD0360002010BD000071
:107A3000482300202DE9F041804602460120002124
:107A4000FEF76CFC1A4F05460E467868FFF7DAF829
:107A500000280CD1174CD4E9062110462A4001EA2F
:107A600006031A4305D0A843B143C4E90601BDE8A3
:107A7000F081404601F07AFF30B1D4E90401284397
:107A80003143C4E9040105E0D4E90410A943B0433B
:107A9000C4E90410D4E9060128433143C4E90601CE
:107AA000A1687868BDE8F0410022FFF767B80000E0
:107AB000A8AB0200282300200146034802888A421E
:107AC00000D0002070470000AC2400202DE9FC5FAE
:107AD0000E008346DDE90C47C6F100009846924649
:107AE000814600D40846012503E000BF90FBFAF070
:107AF0006D1C5045FADAA84500D9454624B1002E40
:107B000001DB780700D5641EB80702D5B8F1000F75
:107B10000AD0F80708D13CB1A54205D22021584629
:107B2000641EFFF7BBFCF6E7002E02DA4E462D215D
:107B300002E0780703D52B215846FFF7AFFC07F08A
:107B4000030002280BD1B8F1000F08D13CB1A542C7
:107B500005D230215846641EFFF7A0FCF6E7CDE9B8
:107B60000047434652463146584602F0DBFEBDE828
:107B7000FC9F000070B50D46044600684FF4887104
:107B800001F0D8FD4FF49071206801F0D3FD4FF45F
:107B90009271206801F0CEFD4FF4A271206801F0CF
:107BA000C9FD20681249C0F8041320686907000B5A
:107BB00040B2090E002806DA00F00F0000F1E020C4
:107BC00080F8141D03E000F1E02080F80014206824
:107BD0000121000B40B200F01F02914040098000DB
:107BE00000F1E020C0F88012C0F8001170BD000064
:107BF00010030200024600201268930702D05307C8
:107C000002D47047500714D502F00300012802D0B7
:107C100002280CD105E0C2F383100B68801C1844C5
:107C200004E00223086803EB92521044086001202C
:107C30007047086800EB9253C2F38910401CEEE7CE
:107C4000F0B58488A518944200D82246A41AC288A8
:107C5000D6189A4200D81346D21A4B880788BB42DE
:107C60000CD34088834209D88888A04206D3A84212
:107C700004D8C888904201D3B04201D90020F0BD99
:107C80000120F0BD30B58FB005461C216846FEF7D7
:107C900072FB00249DF80000019440F00A008DF86A
:107CA00000000394049405940694A87C8DF8360093
:107CB00041F22550ADF834000C949DF830001421A9
:107CC00020F00F00401C20F0F00010308DF8300044
:107CD0009DF8310020F00F00401C20F0F000103023
:107CE0008DF831009DF8320020F00600801C20F055
:107CF00019008DF8320007A8FEF73DFB0DA807908C
:107D00000CA808900120ADF82400ADF82640ADF88D
:107D100028000B942888AB1C07AA6946AADF0FB07D
:107D200030BD000070B50B4C03254FF0020032B19E
:107D3000FFF75AFB208808A105EB004005E0FFF79C
:107D40004BFB208809A105EB0040BDE8704001F025
:107D50000BB90000042400205265636569766564F0
:107D6000204C4544204F4E210000000052656365C1
:107D700069766564204C4544204F4646210000004A
:107D80001721018041800021017141711B21817106
:107D9000C17170472DE9F047394E002780463D46B6
:107DA000DFF8E090D6F804A057E003D00446D0F8FE
:107DB0001C8035E099F8002002EB4201521CD2B23F
:107DC00089F8002009EBC10199F80230091D9A4297
:107DD00001D189F8005048680A780446012A12D077
:107DE000022A02D0032A3BD108E002F07DFB00B159
:107DF0000127257434E00574C06900E0706800282C
:107E0000F9D170602CE0207C50BB88686060C86845
:107E1000A0600869E0604869A061F07800B1656021
:107E20006268B168184B501A20F07F40984202D225
:107E3000A168084406E0881AA16820F07F408142CA
:107E400002D9081A206000E0256065600120A56065
:107E500020742046E56102F029FBB8F10000A4D1AE
:107E600099F8001099F801008142A3D117B97168FF
:107E7000514502D00120BDE8F0870020FBE700005B
:107E80004823002044260020FFFF7F002DE9FF410A
:107E90000026234800F005FA2148001F074600F09D
:107EA00000FA204C60680090A56800E000986946E0
:107EB000284004EB80000C30FFF79CFE0028F5D131
:107EC00001AA009901EA050304EB8303491CDB685E
:107ED00042F82030401C00910228F2D3019800F0B3
:107EE000030001280BD0022810D10198032101EBD7
:107EF00090500099BDF80A6001EB900005E00198F0
:107F0000BDF80A60C0F3831008440090384600F0C2
:107F1000C5F908B10098606004B03046BDE8F08152
:107F2000802C00206828002088B04FF400410020F9
:107F300001F084F808B1FEF7D9FD00F0F7FE01204A
:107F4000FFF720FAFEF7F0FD08B1FEF7CFFD40F293
:107F5000666201214648FEF74FFD08B1FEF7C6FDF7
:107F600001F08AF908B1FEF7C1FD01F00FFB08B17D
:107F7000FEF7BCFD002469460120009401F0BEF923
:107F800008B1FEF7B3FD684601F03CFA08B1FEF710
:107F9000ADFD9DF8080037A120F00F00401C20F037
:107FA000F00010308DF808000D2202A87CDF08B127
:107FB000FEF79CFD00945020ADF80000A020019435
:107FC000ADF80200ADF804404FF4C870ADF80600FB
:107FD00068467ADF08B1FEF789FD0021294800F0E4
:107FE000E9F908B1FEF782FD274801A9CDE9004073
:107FF0002448143000F09FFA08B1FEF777FD2348BB
:108000000090204869461838FFF75EF908B1FEF77E
:108010006DFDFEF765FC1C216846FEF7ACF94FF4D8
:108020002020CDE9004080100290194805900325DA
:1080300018488DF80C500690ADF80E408DF81040A1
:108040006846FEF765FF08B1FEF750FD124813A120
:10805000008805EB004000F087FFFEF793FC00BFAF
:1080600000F072FE0028FBD101F01AF9F8E70000D9
:10807000E42200204E6F726469635F426C696E6B2C
:10808000790000002C240020E5920200257D0200EA
:10809000959E02003F78020004240020426C696E25
:1080A0006B79206578616D706C6520737461727492
:1080B00065642E0070B5144682880E4605462088F9
:1080C000111D0144921C994201D8FE2A01D90C20AD
:1080D00070BD521C32542088FF21401C80B2208089
:1080E00031542088401C80B220808119288802F0F9
:1080F00013FC2188084480B22080AA8842B1A96874
:1081000041B13044FEF71EF92088A9880844208038
:10811000002070BD072070BD2DE9F047C7880446D8
:10812000181D16468946B0FBF7F1B0FBF7F207FBC6
:1081300012009A193A44D21CB2FBF7F2DDF820A0E3
:1081400001E02468491E0029FBD13D1A8846B5424A
:1081500016D818E0BAF1000F05D0211809EB080075
:108160002A46091D04E0204409EB08012A46001DA7
:10817000FEF7E8F800202468761BA844B74201D92E
:10818000354600E03D46002EE4D1BDE8F087000012
:1081900030B5024659B100F07DFF0021074C09E0DF
:1081A00004EB810315685B88AB4202D111600020AB
:1081B00030BD491C8142F3D3052030BDE0230020AF
:1081C000F8B50F46017814460546012901D16878B3
:1081D00030B12088821C9A422DD8012902D006E0B5
:1081E0000720F8BD69780144891C994223D8181AE0
:1081F000801E86B2ADF800602188B81C084469462C
:108200007DDF0028EDD12878022805D1BDF80010C7
:10821000B14201D809210AE00821012805D1687876
:10822000B04202D8ADF8000001E0ADF80060BDF842
:108230000000FE2801D90C20F8BD2288401CB8544B
:108240002088401C80B2208039542088401C208027
:10825000BDF80010084420800020F8BD01F01F0385
:1082600001229A40D243490900EB8100114600F0F7
:1082700021B84A0950F8220001F01F020121914063
:10828000084000D00120704701F01F0301229A40EE
:10829000490900EB8100114600F01CB8002100F0F4
:1082A0000FB8012100F016B808B56A46FDF7E5FFE2
:1082B000009808BD08B56A46FDF7C5FF009808BDDF
:1082C00008B56A46FDF7BFFF08BD08B56A46FDF769
:1082D000A1FF08BD08B56A46FDF7A8FF009808BDD4
:1082E00008B56A46FDF7D6FF009808BD38B50446C4
:1082F00000258DF800506846FEF794FC21686268FE
:10830000086890420ED9401E08600178A38AE2688E
:1083100001FB0325227A2168101AC0B20A79824231
:1083200000D208719DF80000FEF7A0FC284638BD79
:1083300038B5054600208DF800000C466846FEF76B
:1083400071FCE868A98A201AB0FBF1F12A6810686C
:10835000431C136001709DF80000FEF787FC38BDD8
:1083600010B530B1017A42680368891AC9B21A603F
:1083700006E00E2010BD03681A68541C1C601170C2
:10838000491EC9B2F7D2006800210171084610BD2C
:10839000C20800F007030120895C9840084070473C
:1083A00010B5C20800F00703885C01249C402043FC
:1083B000885410BD10B560B10161172120F8021B6F
:1083C00020F8021B1B2100F8021BFFF7D9FC00203C
:1083D00010BD0E2010BD0000F0B5858893B00C468E
:1083E000002D39D1018800263E4F24293BD006DCE0
:1083F000102909D011290CD0232958D14FE03A294E
:108400000BD0552953D129E00146204601F050FDFB
:108410004DE0A01DFFF7B4FC49E02246408934F846
:10842000061F814200D808466080172800D2172016
:108430006080106970B1607960B1D7E90001CDE961
:108440000301ADF80E506088ADF81000136903A960
:10845000104698476671267113B0F0BD014620465C
:1084600001F076FD23E0011D2C2206A8FDF76AFF2E
:10847000BDF81800BDF81C2004EBC0014A73226946
:10848000AAB1D7E90423CDE90423ADF81200487B53
:108490008DF814002269204604A9904707E0017A6C
:1084A000207B884200D201462846FFF7EFF9A07AE8
:1084B0000028D1D0E1882846A5DF012570B1112818
:1084C000CAD001F017F90246074808A1008813B086
:1084D00005EB0040BDE8F04000F04ABDA672E57231
:1084E000BAE7000070AB0200E023002073645F6213
:1084F0006C655F67617474635F65786368616E67FC
:10850000655F6D74755F7265717565737428292078
:1085100072657475726E65642025732E000000000C
:1085200020B10278DE2A03D0082070470E20704761
:1085300041800020704760B159B10278DE2A0AD02C
:1085400009684160DE2101704FF6FF714180002013
:1085500070470E207047082070477FB505460029F8
:108560004DD0002D4BD008780C46DE2847D1A88886
:108570006188884202D1204602F062FA28880128E8
:1085800025D002283BD011283AD0512837D135F8D0
:10859000040F6188884232D1A978A81C02292ED103
:1085A000017A042903D0062901D0052927D1002109
:1085B000009102228DF8002001914FF4C0720291C7
:1085C0000391ADF80420007A05280FD010E0297A35
:1085D0002046012913D1A988428891420FD1012157
:1085E000017204B0BDE8704002F02ABAADF8041080
:1085F00028886946B0DF002801D0616888477FBDC0
:10860000A88861888842FAD14FF6FF7060807FBDEC
:1086100000F180400068002800D00120704708B5B4
:1086200000F18040002101600068009008BD00005A
:1086300070B50B4C207808B185250FE00020A060B4
:1086400060602061E060074801F090F8054600F0A6
:10865000E9FF08B901F074F801202070284670BDC8
:1086600054250020B176020038B500258DF8005061
:108670006846FEF7D7FA074CE068401EE060E06805
:1086800010B901F083F8A5709DF80000FEF7EEFA2E
:1086900038BD000054250020F0B505460478154883
:1086A00089B0164640F82420124A08690832A2F11F
:1086B0000C0742F82400487F385520226846FDF711
:1086C00041FE04942878385C48B10EB10A4A00E0B3
:1086D00000226946281D01F0F9FA09B0F0BD0EB17B
:1086E000064A00E00022694605F10C0001F0C0F9DD
:1086F000F3E7000008230020F5A7020041A60200CE
:108700000FB408B50399002904D004AA00926A4660
:1087100000F00FF801B05DF814FB10B58268044654
:10872000002A05D0D4E90403216898470020A060FE
:1087300010BD2DE9FC4791460C00804676D014F818
:10874000011B39B125290ED04046FEF7A7FE20783F
:108750000028F4D198F80C00002867D04046BDE806
:10876000FC47FFF7DABF0020012221782B291BD01C
:108770002D2902D0302908D102E040F0010001E0AB
:1087800040F00200641C002AEFD100252A290ED0F7
:108790002178A1F130020A2A11D205EB850201EB02
:1087A0004205641C303DF1E740F00400EAE7D9F8E7
:1087B00000100B1DC9F800300968641C0D442178B5
:1087C00000232E290BD114F8011FA1F130020A2A2F
:1087D00005D203EB830201EB4203303BF3E76C2944
:1087E0000DD068290BD0692921D00BDC252918D0A0
:1087F000582931D063290ED0642915D117E014F817
:10880000011FECE7702969D0732932D075291BD07C
:10881000782909D120E0D9F80000011DC9F800101D
:1088200001784046FEF73AFE641C90E76CE0D9F808
:1088300000100A1DC9F800200968CDE900500A227D
:108840004046FFF743F9EFE7D9F800100A1DC9F8D1
:10885000002009680A2206E0D9F800100A1DC9F8AC
:10886000002009681022CDE90050404602F05AF875
:10887000DAE7D9F8001000270A1DC9F800200E68B1
:10888000C00705D112E04046761C7F1CFEF706FEAD
:1088900031780029F7D104E0202140466D1EFEF713
:1088A000FDFDBD42C0D9002DF6D1BDE74EB1304629
:1088B000FDF76CFD074604E0202140466D1EFEF7E3
:1088C000EDFDBD4206D9002DF6D103E04046761CF1
:1088D000FEF7E4FD31780029F8D1A5E7D9F80000CA
:1088E000011DC9F80010056830214046FEF7D6FD8D
:1088F00078214046FEF7D2FD08200021CDE9000195
:10890000034610222946B0E7BDE8FC872DE9FF4168
:108910001C46DDE90A7815460E46684600F0AAF8BE
:1089200046EA450141EA840141EA072242EA084158
:10893000009A00EB8200C0F80017BDE8FF812DE926
:10894000FF411C46DDE90A7815460E46684600F0F0
:108950009FF846EA450141EA840141EA072242EADA
:108960000841009A00EB8200C0F80017BDE8FF81C3
:108970002DE9FF411C46DDE90A7815460E4668469A
:1089800000F094F846EA450141EA840141EA0722F1
:1089900042EA0841009A00EB8200C0F80017BDE8E7
:1089A000FF812DE9FF411C46DDE90A7815460E4698
:1089B000684600F089F846EA450141EA840141EA47
:1089C000072242EA0841009A00EB8200C0F8001733
:1089D000BDE8FF811CB5002100910B4601220191E9
:1089E000FFF7C6FF1CBD1CB5002100910B460122FC
:1089F0000191FFF7D6FF1CBD1CB500220B4600926B
:108A000011460192FFF7B4FF1CBD1CB500220B46B6
:108A1000009211460192FFF7C4FF1CBD1CB5002156
:108A200000910B46012201911146FFF7A1FF1CBDE9
:108A30001CB5002100910B46012201911146FFF760
:108A4000B0FF1CBD13B50C46684600F021F8009934
:108A500000EB8101D1F8002722F44032C1F8002751
:108A6000009900EB8100D0F8001741EA0441C0F8FA
:108A700000171CBD0168202902D24FF0A0407047AA
:108A800001F01F0101600148704700000003005021
:108A90000168202902D24FF0A040704701F01F0169
:108AA0000160014870470000000300500168202960
:108AB00002D24FF0A040704701F01F010160014851
:108AC00070470000000300500168202902D24FF0D7
:108AD000A040704701F01F0101600148704700008D
:108AE0000003005001B56846FFF7D2FFD0F810052B
:108AF0000099C84000F0010008BD01B56846FFF7C5
:108B0000D5FF009A01219140C0F8081508BD01B5B4
:108B10006846FFF7D9FF009A01219140C0F8081577
:108B200008BD38B501240090684631B1FFF7A2FFB7
:108B300000998C40C0F8084538BDFFF79BFF0099AD
:108B40008C40C0F80C4538BD1CB5094C0144D4E933
:108B50000034CDE900346C4606E000BF54F8203004
:108B6000D3F81035401C08C28142F7D81CBD000064
:108B700098AB0200034908B5084400210160006871
:108B8000009008BD0060004002494058012800D014
:108B9000002070470060004030B5124B01460020B5
:108BA000D3F81044224609E0157A854205D1401CCD
:108BB0000A28F7DB4FF0FF3030BD5268002AF3D1AE
:108BC000421CF9D00872D3F810242AB152684A60C6
:108BD000D3F81024516030BD0022C3F810144A604D
:108BE00030BD000068280020F0B595B01C46154641
:108BF0000F4608461A9E00F01DFB182109A8FDF734
:108C0000BAFB0E96CDE909540023082203A9384681
:108C100000F025FB05980690BDF81000ADF81C008B
:108C2000BDF81200ADF81E0000208DF82100039859
:108C3000082600F00300012802D0022818D032E0F4
:108C400003983346850AC0F3C2008DF820000398CC
:108C50000FA9C0F38314A200384600F000FB09A856
:108C6000009006AB22460FA9284600F03FFA1AE012
:108C70000398840DC0F3C2008DF82000082C01D2A7
:108C8000254600E0082533462A460FA9384600F05D
:108C9000E6FA2E44641B09AB06AA29460FA800F089
:108CA00077F9002CEAD1384600F0CAFA15B0F0BDC9
:108CB0007047012001F0E2BC084810B50178084A6D
:108CC000515C19B1001D01F08DF802E00C3000F08C
:108CD0009BFFBDE81040002001F0D0BC68230020BD
:108CE0000423002008B5034A00924023024AFFF7FC
:108CF0007BFF08BD69A20200682700200A4A0129FB
:108D000002EBC00007D0022907D0032907D00429AD
:108D100007D0002070470220704704207047007978
:108D20007047407970470000A0B5020010B5FFF70A
:108D3000C0FF04210348FFF72FFF024901204872BA
:108D400010BD00007C2300202DE9F04F8DB0FEF710
:108D5000B5FB18B100200DB0BDE8F08F7A4C4FF094
:108D6000000BC4F818B4BFF34F8F60680290A56879
:108D7000D846284004EB800008E021680298814230
:108D800001D86160E6E7284004EB80000C3002A9BE
:108D9000FEF730FF0028F0D105AA029901EA050389
:108DA00004EB8303491CDB6842F82030401C02912D
:108DB0000228F2D3059800F00300022802D001280F
:108DC0004ED0A9E005985022810D8946B2EB905F04
:108DD00000D850210E4666F39F50059008315B483D
:108DE00000F0DFF9070079D000F024FA43460822AA
:108DF00005A9384600F039FA029908F1080A294015
:108E0000681A8000001D864223D94F4D0C3530B1C1
:108E1000C2B204EB8101301A90460C3104E02946BD
:108E2000F2B2002590462846C6B25346384600F0B6
:108E30001CFA0AEB08032DB1324629464FEA070017
:108E400000F013FA029909F1030001EB900002907F
:108E50003BE004EB81015346324638460C31EFE7E4
:108E60000598C0F38310062800D30620059960F307
:108E70008911C1F38310801C05918100334800F0F3
:108E800090F9070048D000F0D5F94346082205A91B
:108E9000384600F0EAF908F1080800260FE00298C9
:108EA000434600EA0501401C04EB810102900422C4
:108EB00038460C3100F0D9F908F10408761C059801
:108EC000C0F38310B042EAD847B1D4F81054D4F8B4
:108ED000180468B1384600F0B3F92FE01CE0687A56
:108EE000012804D12A6828463946126890476D68DF
:108EF000002DF4D1384600F0A3F98DF800B0684693
:108F0000FDF790FED4F8180408B9029860609DF847
:108F10000000FDF7ABFE11E0D4F8104404E0216836
:108F20002046896888476468002CF8D108480221E7
:108F3000008801EB004007A100F016F8FEF7BEFA2A
:108F400080F0010007E700006828002008B6020052
:108F5000042400204261636B656E647320666C7547
:108F6000736865640000000000231A4601F018BA17
:108F700008B5012300926A4601F012FA08BD1CB53B
:108F8000CDE9002302236A4601F00AFA1CBD000065
:108F90002DE9F0470E4680461C46924608293ED8E9
:108FA00094F80C90002020731946104601F058F8F0
:108FB0000025B54206D218F805201AA12046FFF771
:108FC0009FFB03E019A12046FFF79AFB6D1C082DBB
:108FD000EFD317A12046FFF793FB0025B54210D22F
:108FE00018F80570FDF7AAF90068C05D10F03E0F93
:108FF00001D03A4600E02E220EA12046FFF780FB6A
:1090000003E00DA12046FFF77BFB6D1C082DE5D387
:1090100001222146504601F005F884F80C90BDE885
:10902000F08700002025303278000000202020004A
:109030007C0000002563000020000000104810B5EF
:10904000FF218160002101604160C0F81814C0F860
:10905000141480F820140B4800F0F0F800280DD10B
:1090600009480A490A4B401AC108002003E000BF22
:1090700023F82000401C8842FAD3002010BD0000D5
:109080006828002008B6020008B60200A0B5020059
:10909000E023002002480349401AC008704700003E
:1090A00008B60200A0B5020013B56846FFF770F8D5
:1090B00008B100201CBD0248009950F831001CBDC9
:1090C000A0B5020070B508480125D0F8104480F81A
:1090D000205405E065722168204649688847646825
:1090E000002CF7D170BD0000682800202DE9FF4753
:1090F00081460C9D00200C462F7B2873984616460F
:109100002946184600F0ACFF072E42D2DFE806F0F1
:1091100004090F161F2A360049462846FFF7F0FAC1
:1091200037E0494628462268FFF7EAFA31E0D4E9F9
:10913000002349462846FFF7E3FA2AE0A06800909A
:10914000D4E9002349462846FFF7DAFA21E0D4E9BA
:109150000201CDE90001D4E9002349462846FFF782
:10916000CFFA16E004F1080007C88DE80700D4E93B
:10917000002349462846FFF7C3FA0AE004F1080035
:109180000FC88DE80F00D4E9002349462846FFF7B1
:10919000B7FA00222946404600F044FF2F73BDE88D
:1091A000FF872DE9F041858A80462D1F4819C01C94
:1091B000B0FBF5F0C6B24046FFF798F8041E19D090
:1091C0000020207101206071E58000272546761E71
:1091D000C4F800800BE04046FFF788F860B1617981
:1091E000491C6171286005467F1CC0F80080B742A9
:1091F000F1D32046BDE8F081204600F002F80020BF
:10920000F8E72DE9F041457901466B1E002201E0A7
:109210000968521C9A42FBD30F680146002605E0FC
:1092200038460C68FFF784F82146761CAE42F7D327
:10923000BDE8F0810121001DFFF736B8FFF790B8B7
:1092400010B504460121001DFFF74AF810F0FF0F8A
:1092500004D12046BDE81040FFF7D3BF10BD38B59C
:1092600001240094FEF758FF38BD38B5002400945F
:10927000FEF752FF38BD0000064910B500204870C7
:10928000091D0860BFF35F8F0349044800F0EEF941
:10929000002010BD5C230020E0AB02005C27002012
:1092A00008B500208DF800006846FDF7BBFCF1EE24
:1092B000100A20F09F00E1EE100ABFF35F8F08490B
:1092C0004020C1F880029DF80000FDF7CFFC00F0BF
:1092D000A9F908B141DF08BD20BF40BF20BF08BDCC
:1092E00004E000E0FDF702BC20B103490968016019
:1092F000002070470E207047CCAD0200FEB502463C
:109300000E460846FFF7F0FF00286ED100240094B7
:109310000194012506208DF80020ADF80400029488
:109320008DF8025069462020326869DF2F4F48B11E
:1093300000F0E0F93988024605EB01432C49184654
:10934000FFF716FE00948DF801508DF8024001944D
:1093500002948DF8034069464020326869DF40B1CD
:1093600000F0C8F902463888224905EB0040FFF7B3
:10937000FFFD00940A208DF80000019402946946D4
:109380000120326869DF48B100F0B4F9398802463B
:1093900005EB014318491846FFF7EAFD4FF4B060AA
:1093A0000090019402946946A120326869DF40B1BF
:1093B00000F0A0F902463888104905EB0040FFF79D
:1093C000D7FD0094019402948DF800406946A020D6
:1093D000326869DF40B100F08DF9024638880849EB
:1093E00005EB0040FFF7C4FD0020FEBD0C2400206B
:1093F0006CB40200B4B40200CCB3020018B4020092
:1094000078B302002DE9F0410446D0F8008060DF17
:109410002168194D074641451CD92888022606EBCC
:10942000004016A1FFF7A0FD2888424606EB004049
:109430001EA12368FFF7A3FDF006D0F80C012168F8
:10944000800200F10050421A288825A106EB004056
:10945000FFF78EFD012467B1384600F04BF9024654
:1094600028882AA104EB0040FFF782FD3846BDE8BA
:10947000F0812E480470F9E70C240020496E7375C2
:109480006666696369656E742052414D20616C6C3B
:109490006F636174656420666F7220746865205321
:1094A0006F66744465766963652E00004368616E7B
:1094B0006765207468652052414D20737461727431
:1094C000206C6F636174696F6E2066726F6D2030FF
:1094D00078257820746F20307825782E00000000E1
:1094E0004D6178696D756D2052414D2073697A65C3
:1094F00020666F72206170706C69636174696F6E51
:1095000020697320307825782E00000073645F6234
:109510006C655F656E61626C652829207265747583
:10952000726E65642025732E00000000DB2300208E
:1095300030B5144891B00078002820D05FF0340591
:10954000ADF8405010A903A861DF30B1052816D04E
:1095500011B0BDE83040FDF7C9BA03AC0A4968460E
:1095600000F084F807E000BFD0E9002120469047D2
:10957000684600F092F802980028E1D0F4E711B0B4
:1095800030BD0000DB230020D0AD02007CB5194CBB
:10959000207808B108207CBD0120A070002000F0D8
:1095A0002DFE112819D0002000F040FE12480026A0
:1095B000006801908DF800606846FDF733FB0F49A5
:1095C00001A810DF05000AD0002020709DF80000DF
:1095D000FDF74CFB2DB128467CBD00207CBD012051
:1095E000F3E7A670667000F0AFFE012000F01EFEEB
:1095F000F3E70000D823002064AD0200716A020086
:109600000EB50749684600F031F805E0D0E90010D2
:109610008847684600F041F802980028F6D10EBD50
:1096200080AD02000148007870470000D823002078
:109630001FB568464BDF30B1052814D004B0BDE833
:109640001040FDF753BA084901A800F00FF806E0F2
:10965000D0E900210098904701A800F01EF8039877
:109660000028E6D0F4E71FBDECAD020001600968F8
:109670004160AFF3008010B5D0E9002153689942F2
:1096800001D1002104E0D1E90034A34202D01946FF
:10969000816010BD08314160F0E7816800290BD07E
:1096A000026892680A44826041684B689A4203D11A
:1096B00008314160FFF7DFBF704700000C4A10B56A
:1096C00002F594730EE0991AC91001EBD17149109B
:1096D00002EBC1010C68844201D90B4602E005D2BD
:1096E00001F108029A42EED3002010BD486810BD77
:1096F00000AC020000B5FFF7E1FF002800D10148EF
:1097000000BD0000ECAB02004058002800D0012052
:10971000704708B5002242504058009008BDD0F86C
:109720000403084000D0012070474058002800D0B2
:109730000120704708B5002242504058009008BDF3
:1097400008480068012110F0010F08D14FF0E02017
:10975000E02280F80024C0F88012C0F8001102480E
:109760000160704700E100E018050040064902462C
:1097700000200B790BB1852070470A6001220A7125
:1097800000224A717047000018230020044901207C
:10979000086004480168C1F300410029FAD170470C
:1097A0000C00004018040040002802D0014980014C
:1097B00008477047B1AB020010B5044600F01AFC30
:1097C00028B12046BDE810400021FFF73BB92046F4
:1097D00000F01CFC00280FD02046FDF74DFF074A83
:1097E00002EB8001D1F8103523F00103C1F81035E8
:1097F00001218140C2F8081310BD00000060004044
:109800002DE9F0410E46804600F0F4FB204D002883
:10981000404616D0FDF730FF284490F858008009E4
:10982000032802D001280AD003E04046FFF75AF986
:1098300028B103214046BDE8F041FFF703B90221FA
:10984000F8E700F0E3FB002820D04046FDF714FFC6
:109850000446104F4FF4807007EB840100EB840046
:10986000D1F8102580B242F00102C1F81025FFF7AF
:1098700081F9002E0AD04046FDF7FEFE55F8200083
:10988000002803D00120A040C7F80403BDE8F08100
:1098900068250020006000402DE9FC41DFF8C08011
:1098A000044608EB0400002790F930001346C01767
:1098B0000E46401C01D008274FE0B0781946C0F38F
:1098C00040022046FDF7B4FE0546401C44D0B07867
:1098D00041071CD4C0070DD068460094FFF7D8F8A4
:1098E000009900EB8100D0F8001721F00201C0F8C8
:1098F000001707E000217378204600910A46019185
:10990000FFF71DF8164920466431FEF749FDB0788F
:10991000800718D51348317800EB8500D0F8102562
:10992000114B1A40C0F810254FF47C524FF44033CD
:1099300002EA042203EA01410A43D0F810150A435F
:10994000C0F8102509E008EB0500327810F8581F20
:1099500041EA8211017000E004273846BDE8FC812D
:109960006825002000600040FFC0FCFF10B5FFF735
:10997000B9F8002800D0012010BD000070B5194DC5
:1099800095F86A0008B1082070BD0020411E2A1811
:10999000401CC0B282F830103028F8D30024204692
:1099A000FDF738FE641CE4B20C2CF8D30D490024FA
:1099B000E0204C66A1F868400B4981F800040126BC
:1099C0004020891FC1F88002C1F800014FF4BE7029
:1099D000FFF7D0F80549F007C1F8040385F86A607D
:1099E000204670BD6825002006E000E000600040D1
:1099F000034890F86A00002800D00120704700005A
:109A0000682500200121B1EB507F01D10120704772
:109A10000020704738B50D4600F06EFB040014D0EE
:109A200000208DF800006846FDF7FCF8207928B189
:109A30009DF80000FDF71AF9112038BD01202560BE
:109A400020719DF80000FDF711F9002038BD10B518
:109A500000F052FB002802D000210160017110BD0E
:109A60000149024800F032BED42500200020004009
:109A70002DE9F0410546007916460F4600EB4001FE
:109A80002D4A01EBC00102EB810494F82A1011B1B8
:109A90000820BDE8F081294951F820102868FFF717
:109AA000B9FF08B11120F4E739462846FDF7F8F868
:109AB00066603869206030004FF001062FD03F7F8C
:109AC0004FF48E712868FFF724FE4FF4A2712868C6
:109AD000FFF71FFE28681A49C0F8041328684FEAE8
:109AE0004711000B40B2002806DA00F00F0000F129
:109AF000E02080F8141D03E000F1E02080F800145D
:109B00002868000B40B200F01F0206FA02F140097B
:109B1000800000F1E020C0F88012C0F80011286831
:109B20000421C0F800150020A061E06184F829003C
:109B300044F8140FA675ACE7D4250020A0AB0200B2
:109B4000800002002DE9F047054600790B4600EB46
:109B5000400101EBC000234901EB8004284600F0DE
:109B600043F810B11120BDE8F0874FF00008C4F8A9
:109B70002080A360626184F828804FF48E76474687
:109B800031462868FFF7C5FD28684FF00109C0F885
:109B900008902146286800F035FD606800BBD5F8C4
:109BA00000A00EE094F8280008B10F2716E0314617
:109BB0005046FFF7A9FD0028F4D02146504600F09A
:109BC00021FD216A60698142F1D331462868FFF79F
:109BD0009BFD0028F9D02868C0F80C90C4F81480C8
:109BE0003846C0E7D4250020007900EB400101EBA6
:109BF000C000044901EB80004069002800D001202A
:109C000070470000D42500202DE9F0470446007974
:109C10004FF0000900EB400101EBC000254901EBCA
:109C200080072068C0F80095786880B120682249D4
:109C3000C0F8081320680121000B40B200F01F0299
:109C400091404009800000F1E020C0F880112068B8
:109C5000D0F80C25D0F81485D0F80865D0F8105548
:109C60004FF0FF31C0F81415C0F80C152068C0F88B
:109C70000815C0F81015501C02D01046FEF7AAFEB9
:109C8000B8F1FF3F02D04046FEF7A4FE681C02D0A8
:109C90002846FEF79FFE701C02D03046FEF79AFE63
:109CA0002068FFF7D4FE87F82A90C7F80490BDE833
:109CB000F0870000D42500208402020001490248F8
:109CC00000F0B0BD00260020002000402DE9F0414A
:109CD0000546164600790F46154A00EBC00102EB17
:109CE000810494F8201011B10820BDE8F0811149D9
:109CF00051F820102868FFF78DFE08B11120F4E715
:109D000039462846FDF707F86660386920601EB1BD
:109D1000397F2846FDF72EFF28680821C0F8001576
:109D20000020A061E0610121606184F82010DCE77F
:109D300000260020A4AB02002DE9F04704460E46A1
:109D40000079204900EBC00001EB80051746304642
:109D5000FFF758FE30B1204600F036F820B1112050
:109D6000BDE8F0871020FBE76F61AE604FF490769E
:109D7000002731462068FFF7DDFC4FF4AC78414600
:109D80002068FFF7D7FC2068AA686969C0F84425F5
:109D9000C0F84815206801218160686878B9B1462B
:109DA00049462068FFF7C1FC064641462068FFF798
:109DB000BCFC0643F4D000B10F2700206861384690
:109DC000CEE70000002600200079054900EBC00026
:109DD00001EB80004069002800D00120704700009E
:109DE000002600202DE9F04704460079274900EBC2
:109DF000C00001EB800720684FF00009C0F8009513
:109E0000786880B120682249C0F8081320680121D1
:109E1000000B40B200F01F0291404009800000F1A9
:109E2000E020C0F880112068D0F80C25D0F8148507
:109E3000D0F80865D0F810554FF0FF31C0F80C1578
:109E4000C0F814152068C0F80815C0F81015501C8B
:109E500002D01046FEF7C7FDB8F1FF3F02D04046E2
:109E6000FEF7C1FD681C02D02846FEF7BCFD701C41
:109E700002D03046FEF7B7FD2068FFF7E8FD87F80F
:109E80002090C7F80490BDE8F0870000002600206D
:109E9000100302000078002807D104483B214088C5
:109EA00076DF002801D0FCF721BE7047E0220020B9
:109EB00070B58D88027900EBC5042273C97BA41D9F
:109EC000012902D0022904D101E0008800E0408885
:109ED00020802188608881420FD92846A5DF01268D
:109EE000A0B1112814D0FFF705FC02460A480BA1C7
:109EF000008806EB0040FFF73BF8A179E07981424A
:109F000008D92846BDE87040FDF7C0BC6671F4E78B
:109F10002671F2E770BD0000E023002073645F62E9
:109F20006C655F67617474635F65786368616E67B1
:109F3000655F6D74755F726571756573742829202E
:109F400072657475726E65642025732E00000000C2
:109F50007CB506468D88C88806EBC504A41D172865
:109F600000D217202188814200D808466080002056
:109F7000207121882846B5DF50B1FFF7BBFB0246B0
:109F80000E480121008801EB00400DA1FEF7F0FF13
:109F90006079002810D1306900280DD01449D1E92A
:109FA0000201CDE90001ADF802506088ADF804006F
:109FB00032696946304690477CBD0000E0230020AE
:109FC00073645F626C655F67617474735F65786307
:109FD00068616E67655F6D74755F7265706C792816
:109FE000292072657475726E65642025732E0000D9
:109FF00070AB02000449084490F93000082801DBE6
:10A00000012070470020704768250020044908445B
:10A0100090F93000082801D20120704700207047D5
:10A020006825002010B50C46017A052908D0407A31
:10A0300038B1084808A102682046FEF761FB00E03D
:10A040001AB106A12046FEF75BFB2046BDE8104092
:10A05000FEF763BBB4230020257300000D0A000047
:10A0600038B5C3880D46044633B114A0009015A23C
:10A0700016A12846FEF744FB217A05291CD0607AF8
:10A0800048B1A088FEF73AFE164951F8202016A1E3
:10A090002846FEF735FBA0880021FFF705F80346A8
:10A0A0001049207A143951F8202001B02846BDE823
:10A0B00030400EA1FEF724BB38BD00001B5B306DA5
:10A0C000000000001B5B313B33316D0025734C6F8A
:10A0D00067732064726F7070656420282564292579
:10A0E000730D0A00B4230020257300003C25733E45
:10A0F0002025733A200000000349884201D103481B
:10A1000070470020704700000020004020230020FE
:10A1100070B5012670044FF0E0210025C1F88001E0
:10A12000084C4010C4F84803C4F8080366602F20A8
:10A13000FFF73AFBA660044C2F20A560FFF734FB25
:10A14000A57070BD001001404823002070B5054681
:10A1500088690C4600284FF4847128460AD0FFF71E
:10A16000D8FAD5F81805626AE1688854606A401C1C
:10A17000606270BDFFF7CDFAD5F8180570BD1FB548
:10A1800001238DF80030CDE90121D0E900126846A5
:10A1900090471FBD1FB501238DF800308DF80810C2
:10A1A0000192D0E90012684690471FBD38B50021E2
:10A1B000012548B101280CD0032809D1FFF7C0FAC6
:10A1C000BDE83840FEF750BA4FF0E020C0F88051AB
:10A1D00038BD8DF800106846FCF724FD064C207849
:10A1E00008B9FEF725FAE068401CE060A5709DF80C
:10A1F0000000FCF73BFD38BD542500203EB5044669
:10A2000009496846FFF732FA08E000BFD0E90021AB
:10A210002046904730B16846FFF73FFA0298002881
:10A22000F4D13EBD11203EBD68AD02003EB50446EE
:10A2300008496846FFF71AFA07E000BFD0E9002195
:10A24000204690476846FFF728FA02980028F5D183
:10A250003EBD000074AD020002498969002900D0AA
:10A2600008477047C024002070B50D4C0020D2B2C2
:10A270002070201D0B4D0378EB5C1BB1001DFFF718
:10A280005BFD02E00C30FFF75DFC08B1FCF72EFC33
:10A290006078002802D021780029FAD070BD000033
:10A2A00064230020042300202DE9F0410746806A42
:10A2B00014468846C8B3002531E000BFB96A05EBF3
:10A2C000450001EB8006B088801CFE2802D90C20D6
:10A2D000BDE8F0812288401C08F802002088162280
:10A2E000401C80B2208008F800202088401C80B2EA
:10A2F000208000EB0801308800F00EFB2188084424
:10A3000080B22080B28842B1B16871B14044FCF79C
:10A3100019F82088B188084420806D1CEDB297F8A8
:10A320002C00A842CAD80020D2E7FFE70720CFE7D9
:10A33000002805D10349012048700020FDF7A4B989
:10A34000704700005425002010B51620FCF7B6FA1F
:10A35000A0B1114890F800044009082811D280B13A
:10A3600001280ED004280CD00C4882684FF48001DC
:10A370006AB1016841F48001016010BD42F2010040
:10A3800001E042F20200BDE81040FCF7AFBB4FF025
:10A39000E020C0F8001110BD16E000E050270020BA
:10A3A0002DE9F84F204D92468946064698460122EF
:10A3B00069461846AF68FDF729F858B300980021A0
:10A3C0000446801C09E000BF00EA07035AF8212078
:10A3D00005EB8303401C491CDA604145F4D34FEA86
:10A3E000164AFDF7FDFA4AEA0041601C384005EBC9
:10A3F00080003C4005EB8402C160D06866F3C50074
:10A4000068F3891069F39F2020F00300401C20F0BE
:10A410000400D06095F8200402E000BFFEF794FC31
:10A420000028FBD1BDE8F88F682800202DE9F84FFF
:10A430001D4C00256846D4E901A6FDF7DBFA00278C
:10A4400038B30023009A61681CE0D1F800C00846C8
:10A45000944503D9ACEB02020A6015E0A2EB0C02B2
:10A4600063440760D0F80CC0C1698146BCF1000F9D
:10A4700008D006EB030828F07F48C0E9018CC9F832
:10A480001C5005460029E0D128466160FDF782FC9A
:10A4900003E02846FDF77EFC10B15046FDF716F9A3
:10A4A000E770BDE8F88F0000482300200D4B10B581
:10A4B000596831B102680C68A24204D8A21A0A6035
:10A4C000C161586010BD0B4603E00B46C969121B01
:10A4D00021B10C689442F8D3A41A0C600260C161E7
:10A4E000D86110BD482300202DE9F041144E776853
:10A4F0003D462C4603E0844204D02546E469002C06
:10A50000F9D11BE0D4B1A5420BD1F869706040B914
:10A510000C49012088600021B160F0702F20FFF706
:10A5200043F92168E069E86110B1026811440160F3
:10A530007068874202D00120BDE8F0810020FBE76F
:10A5400048230020001001407CB5064600240D463B
:10A550008DF800406846FCF765FB01A800F082FA20
:10A5600070B10570094946609DF8040048709DF877
:10A570000000FCF77BFB1420FCF73EF820467CBD76
:10A5800004249DF80000FCF771FBF7E74426002047
:10A590002DE9F041194D6C68002C2CD0184800278B
:10A5A0000068A968B846401A20F07F462068B0428B
:10A5B0000CD82146361A0744E469087C20B181F89A
:10A5C0001080886949698847002CEFD1297868781C
:10A5D000814206D1401CC0B26870022801D185F8C2
:10A5E0000180064869780C3040F82170BDE8F041E0
:10A5F0001420FCF701B8BDE8F081000048230020DA
:10A600000415014070B50C4605464FF48E71FFF7F6
:10A6100080F8216AA068415C206A401C2062C5F86D
:10A620001C1570BD1FB500228DF8002002918168B5
:10A6300001914261D0E90012684690471FBD0000B9
:10A640001FB50A4601788DF8001041680191017A22
:10A650008DF80810C0680390044850F8221008389C
:10A6600050F82220684690471FBD000010230020AC
:10A6700001490120087070476423002010B588B09C
:10A68000044620220E496846FBF75CFE0620009037
:10A69000C01F0190029003904FF0EB7006900CB138
:10A6A000084A00E0002269460748FDF7F5FF08B1B7
:10A6B000FCF71CFA0448001F447008B010BD0000ED
:10A6C00034AD020071A60200682300202DE9FF4787
:10A6D0000C4605464FF40071FFF721F801274FF4AF
:10A6E0000178002618B34FF4927949462846FFF7BF
:10A6F0000BF8E0B149462846FFF70BF8C5F8088388
:10A7000094F8290000B96F6002208DF80000D5F898
:10A710008004C5F880040390A0690290E06801906D
:10A72000A661E661D4E900126846904728E004215A
:10A730002846FEF7F4FF18B34FF484712846FEF75D
:10A74000E3FFE8B121462846FFF700FD616AA069F2
:10A75000884215D1E06938B1E268616AA061206978
:10A76000E6616662E06008E094F8290000B96F6075
:10A77000C5F80883A661E268616A2046FFF7FFFC1E
:10A780004FF48E7841462846FEF7BEFF78B1206A26
:10A790006169884202D294F8280020B341462846D5
:10A7A000FEF7B7FF616911B12046FFF73BFF4FF499
:10A7B000A27841462846FEF7A7FF002818D0414658
:10A7C0002846FEF7A6FF94F8290000B12F60A06983
:10A7D00000280DD0A661E268616A04B02046BDE899
:10A7E000F047FFF7CCBC21462846FFF70BFFDEE71A
:10A7F000BDE8FF871FB50A4601788DF80010416853
:10A800000191017A8DF80810C0680390044850F84F
:10A810002210083850F82220684690471FBD0000DB
:10A82000102300202DE9FF410C464FF49277054696
:10A830003946FEF77AFF0026C0B139462846FEF7B2
:10A8400079FF02208DF80000D5F88004C5F8800457
:10A850000390D5F83C058DF80800E0680190A661EA
:10A86000E661D4E900126846904723E04FF4887708
:10A8700039462846FEF759FFE0B139462846FEF72B
:10A8800059FFD5F83C15A069884213D1E06960B141
:10A89000E268D5F8000220F02000C5F80002E06967
:10A8A000A0612069E661E06001E0A661E2682046FF
:10A8B000FFF770FC4FF4A27739462846FEF735FFC4
:10A8C00060B139462846FEF735FFA06930B1A66170
:10A8D000D5F83C152046E268FFF75CFC4FF4907712
:10A8E00039462846FEF721FF002813D0394628466E
:10A8F000FEF720FF606900280CD0D5F84C058DF8D4
:10A9000000608DF80800A06801906661D4E900122B
:10A9100068469047BDE8FF810870000A4870022031
:10A92000704700002DE9F05F8346DDE90A4A994649
:10A9300090460D460846012703E000BFB0FBF8F043
:10A940007F1C4045FAD2B94500D94F465FEACA702C
:10A9500012D18CB15FEA8A7002D5B9F1000F01D033
:10A96000202607E0302605E031465846641EFCF7F5
:10A9700095FD0CB1A742F7D35FF00106B9F1010FC5
:10A9800002D9A9F1010903E0B5FBF6F0404502D375
:10A9900006FB08F6F2E7DFF83C9000BFB5FBF6F0E7
:10A9A00000FB165519F800105846FCF777FDB6FB6A
:10A9B000F8F6002EF2D15FEACA7009D0002C07D059
:10A9C000A74205D220215846641EFCF767FDF5E733
:10A9D000BDE8F09FB6AB0200F8B5054680B2FDF7C2
:10A9E0006BF8040013D0154E207A0027317B884283
:10A9F0000ED2A8B204F10A0175DF28B1112806D0E1
:10AA0000BDE8F840FFF728BC207A401C2072F8BD52
:10AA10002772307C38B1A8B23B2176DF18B1082804
:10AA200001D0FFF719FC71690029F0D08DF8007092
:10AA3000ADF8025068468847F8BD0000C0240020E9
:10AA400030B40446007A00280AD06088002166DF0E
:10AA500028B1112802D0616830BC0847012020725B
:10AA600030BC70470A494A788B78521CD2B2934264
:10AA700000D100220B78934201D100207047027070
:10AA8000487800EB400001EBC000001D704700005B
:10AA9000442600202DE9FC411646DDE90854CDE9A5
:10AAA00000541F468046022200F00CF8002807D10F
:10AAB000CDE900543B4610223146404600F002F8F2
:10AAC000BDE8FC812DE9FC5F0026DDE90C4B9946D1
:10AAD00092468E4680462788354630E0D8F80400F6
:10AAE000002200EB850069460068019001A864DF40
:10AAF000002830D19DF8000050451FD10EB1002133
:10AB000000E00221228808441118594522D846B98C
:10AB1000521C90B2208009F800E02088401C208060
:10AB20000126218801A801EB0902694664DF00289B
:10AB300011D120889DF80010084420806D1CB8F8C1
:10AB40000000A842CADC56B12088C01B401E80B25B
:10AB5000FF2802D90C20BDE8FC9F09F8070000205F
:10AB6000F9E70000231500000D0E0F100B0C18194B
:10AB7000770A000000000000770A000000000000D3
:10AB80007ADA00000000000023D1BCEA5F782315C8
:10AB9000DEEF121200000000000000500003005021
:10ABA000619A0200BD9C02000300000024260020E0
:10ABB0000338FDD8704730313233343536373839C1
:10ABC00041424344454600000000000000000000F0
:10ABD0000000000000000000000000000000000075
:10ABE000C8AB0200E0AB020004000000556E6B6EC3
:10ABF0006F776E206572726F7220636F64650000FC
:10AC0000000000009CB202000100000048B10200F8
:10AC1000020000003CAF020003000000BCB10200D3
:10AC20000400000010B2020005000000F0B00200B5
:10AC3000060000008CB0020007000000F8B102001E
:10AC40000800000004B102000900000068B1020021
:10AC50000A00000084B202000B00000024AF0200D2
:10AC60000C0000001CB102000D000000ECB202005C
:10AC70000E000000E8B102000F00000024B2020044
:10AC80001000000058B202001100000000B30200E2
:10AC900012000000D4B202001300000070B20200E3
:10ACA00080000000A4B0020081000000E0AF0200BC
:10ACB00082000000A0AF02008300000080AF02000D
:10ACC00084000000BCAF020085000000C8B0020094
:10ACD00086000000D0B10200900000006CB00200BD
:10ACE0009100000060AF02009200000030B102004D
:10ACF0000082000038B202000182000084B102002C
:10AD000002820000A0B1020000840000FCAF02003B
:10AD100001840000A8B202000284000044B00200D6
:10AD20000384000020B00200E58C0200B98C020010
:10AD3000B18C0200FFFFFFFFFFFFFFFFFFFFFFFFE0
:10AD4000FFFFFFFF00000000000000000000D60130
:10AD500007010000000000000000000000000000EB
:10AD6000000000000100000754AD020064AD0200C5
:10AD7000080000008CAD02009CAD0200080000003D
:10AD80009CAD0200ACAD02000800000068B60200F5
:10AD900070B60200000000000000000058B602007B
:10ADA00068B60200000000000000000020B60200AB
:10ADB00028B6020028B6020038B6020038B60200F3
:10ADC00048B6020048B6020050B60200E022002059
:10ADD000ACAD0200CCAD02000800000050B602008D
:10ADE00058B602000000000000000000DCAD0200C8
:10ADF000ECAD0200080000000040404040404040F0
:10AE0000404041414141414040404040404040403D
:10AE100040404040404040404005020202020202E1
:10AE20000202020202020202022020202020202030
:10AE30002020200202020202020290909090909044
:10AE40001010101010101010101010101010101002
:10AE50001010101002020202020288888888888876
:10AE60000808080808080808080808080808080862
:10AE7000080808080202020240000000F9AD0200C2
:10AE800073645F626C655F6761705F646174615F6A
:10AE90006C656E6774685F757064617465282920DD
:10AEA000287265717565737429206F6E20636F6EEB
:10AEB0006E656374696F6E203078257820726574D2
:10AEC00075726E65642025732E000000546865203D
:10AED00072657175657374656420636F6D62696E08
:10AEE0006174696F6E206F6620545820616E642013
:10AEF0005258207061636B6574206C656E6774686E
:10AF00007320697320746F6F206C6F6E6720627995
:10AF1000202575206D6963726F7365636F6E64734E
:10AF20002E0000004E52465F4552524F525F494E2E
:10AF300056414C49445F4441544100004E52465FE3
:10AF40004552524F525F534F46544445564943452C
:10AF50005F4E4F545F454E41424C45440000000057
:10AF60004E52465F4552524F525F464541545552EC
:10AF7000455F4E4F545F454E41424C4544000000F2
:10AF80004E52465F4552524F525F4D555445585FA1
:10AF9000554E4C4F434B5F4641494C4544000000E1
:10AFA0004E52465F4552524F525F4D555445585F81
:10AFB0004C4F434B5F4641494C4544004E52465F1F
:10AFC0004552524F525F4D555445585F434F4E4482
:10AFD0005F494E49545F4641494C454400000000DA
:10AFE0004E52465F4552524F525F4D555445585F41
:10AFF000494E49545F4641494C4544004E52465FD4
:10B000004552524F525F424C455F495053505F5238
:10B01000585F504B545F5452554E43415445440081
:10B020004E52465F4552524F525F424C455F495027
:10B0300053505F504545525F52454A45435445443D
:10B04000000000004E52465F4552524F525F424C44
:10B05000455F495053505F4C494E4B5F4449534301
:10B060004F4E4E4543544544000000004E52465F4B
:10B070004552524F525F4150495F4E4F545F494DC8
:10B08000504C454D454E5445440000004E52465FDD
:10B090004552524F525F4E4F545F535550504F528E
:10B0A000544544004E52465F4552524F525F4D4FF9
:10B0B00044554C455F4E4F545F494E495449414CAD
:10B0C000495A4544000000004E52465F4552524FD7
:10B0D000525F4D4F44554C455F414C524541445998
:10B0E0005F494E495449414C495A454400000000CB
:10B0F0004E52465F4552524F525F4E4F545F464F3D
:10B10000554E44004E52465F4552524F525F494E93
:10B1100056414C49445F5354415445004E52465F9A
:10B120004552524F525F444154415F53495A450082
:10B130004E52465F4552524F525F494F5F50454E07
:10B1400044494E47000000004E52465F4552524F60
:10B15000525F5356435F48414E444C45525F4D4900
:10B160005353494E470000004E52465F4552524FDE
:10B17000525F494E56414C49445F4C454E475448F6
:10B18000000000004E52465F4552524F525F4452FB
:10B19000565F5457495F4552525F414E41434B0001
:10B1A0004E52465F4552524F525F4452565F54577B
:10B1B000495F4552525F444E41434B004E52465FF9
:10B1C0004552524F525F494E5445524E414C000039
:10B1D0004E52465F4552524F525F53544F52414771
:10B1E000455F46554C4C00004E52465F4552524F0B
:10B1F000525F4E554C4C00004E52465F4552524FE6
:10B20000525F494E56414C49445F504152414D00B6
:10B210004E52465F4552524F525F4E4F5F4D454D25
:10B22000000000004E52465F4552524F525F464F5B
:10B230005242494444454E004E52465F4552524F99
:10B24000525F4452565F5457495F4552525F4F56C2
:10B25000455252554E0000004E52465F4552524FE5
:10B26000525F494E56414C49445F414444520000AC
:10B270004E52465F4552524F525F5245534F5552C0
:10B28000434553004E52465F4552524F525F494E1E
:10B2900056414C49445F464C414753004E52465F2D
:10B2A00053554343455353004E52465F4552524F08
:10B2B000525F424C455F495053505F4348414E4EA8
:10B2C000454C5F414C52454144595F4558495354A0
:10B2D000530000004E52465F4552524F525F434F5B
:10B2E0004E4E5F434F554E54000000004E52465F95
:10B2F0004552524F525F54494D454F55540000003E
:10B300004E52465F4552524F525F425553590000CC
:10B310007761726E696E6700646562756700000030
:10B320001B5B313B33306D001B5B306D0000000058
:10B330001B5B313B33316D001B5B313B33326D00A6
:10B340001B5B313B33336D001B5B313B33346D0092
:10B350001B5B313B33356D001B5B313B33366D007E
:10B360001B5B313B33376D00696E666F0000000078
:10B370006572726F7200000073645F626C655F6378
:10B3800066675F73657428292072657475726E65CF
:10B3900064202573207768656E20617474656D7014
:10B3A00074696E6720746F2073657420424C455F2A
:10B3B00047415454535F4346475F534552564943B0
:10B3C000455F4348414E4745442E000073645F6229
:10B3D0006C655F6366675F736574282920726574A6
:10B3E00075726E6564202573207768656E206174C0
:10B3F00074656D7074696E6720746F207365742056
:10B40000424C455F434F4D4D4F4E5F4346475F565D
:10B41000535F555549442E0073645F626C655F63EA
:10B4200066675F73657428292072657475726E652E
:10B4300064202573207768656E20617474656D7073
:10B4400074696E6720746F2073657420424C455F89
:10B4500047415454535F4346475F415454525F54ED
:10B4600041425F53495A452E0000000073645F62F9
:10B470006C655F6366675F73657428292072657405
:10B4800075726E6564202573207768656E2061741F
:10B4900074656D7074696E6720746F2073657420B5
:10B4A000424C455F434F4E4E5F4346475F474150D6
:10B4B0002E00000073645F626C655F6366675F7394
:10B4C000657428292072657475726E656420257311
:10B4D000207768656E20617474656D7074696E673D
:10B4E00020746F2073657420424C455F4741505F64
:10B4F0004346475F524F4C455F434F554E542E00D5
:10B500006E72665F626C655F676174740000000054
:10B51000636C6F636B000000434C4F434B000000B3
:10B520004750494F54450000505253005541525422
:10B530000000000055415254450000007077725FD2
:10B540006D676D740000000062616C6C6F632E6C3F
:10B550006F675F6D656D706F6F6C0000617070007C
:10B560006E72665F736468006E72665F7364685FB4
:10B57000626C65006E72665F7364685F736F630010
:10B5800070B60200E022002034010000C063020017
:10B59000C0B60200142400207C280000AC68020021
:10B5A00000B502000000030310B502000000000017
:10B5B00018B502000000000020B5020000000000E5
:10B5C00028B50200000000002CB5020000000000B9
:10B5D00034B50200000000003CB50200000000008D
:10B5E00048B50200000000035CB502000000030340
:10B5F00060B502000000030368B502000000030309
:10B6000074B502000000030390230020882300206B
:10B6100090230020A827002000240020180000000C
:10B62000C571020000000000D98302002C24002014
:10B63000C9700200000000002173020014240020E1
:10B640005B85020040240020D96F0200000000004A
:10B6500031A302000000000031950200000000004C
:10B660003196020000000000ADA1020000000000C1
:10B6700012FF14FFFF0B120314A57502134C2433A1
:10B68000201F5A6B0801711220AA4008042528AD1A
:10B69000021470B3021A10041A68041A18041A2843
:10B6A000041A20041A30041A38041A40041A4804F0
:10B6B0001A50041A58041A600451043490D003003C
:040000050002620192
:00000001FF
