:020000040002F8
:10600000106C0020F96202000163020003630200C9
:10601000056302000763020009630200000000003C
:106020000000000000000000000000000B63020000
:106030000D630200000000000F6302001163020004
:10604000F165020013630200356C0200CD680200A6
:106050001363020013630200296402001363020049
:106060001363020013630200136302001363020050
:106070001363020013630200136302001363020040
:1060800013630200496602001363020013630200F7
:106090001169020013630200156902001363020014
:1060A0001363020013630200136302001363020010
:1060B00013630200136302000000000000000000F0
:1060C00013630200136302001363020013630200F0
:1060D0001363020013630200136302000000000058
:1060E00000000000000000000000000000000000B0
:1060F00000000000000000000000000000000000A0
:10610000000000000000000000000000000000008F
:10611000000000000000000000000000000000007F
:10612000000000000000000000000000000000006F
:10613000000000000000000000000000000000005F
:10614000000000000000000000000000000000004F
:10615000000000000000000000000000000000003F
:10616000000000000000000000000000000000002F
:10617000000000000000000000000000000000001F
:10618000000000000000000000000000000000000F
:1061900000000000000000000000000000000000FF
:1061A00000000000000000000000000000000000EF
:1061B00000000000000000000000000000000000DF
:1061C00000000000000000000000000000000000CF
:1061D00000000000000000000000000000000000BF
:1061E00000000000000000000000000000000000AF
:1061F000000000000000000000000000000000009F
:10620000DFF80CD000F0D2F800480047759A020081
:10621000106C002030B4044654E8000F0D4644E8EA
:106220000053002BF8D1156030BC704730B40446E1
:1062300054E8000F40EA010544E80053002BF7D171
:10624000156030BC704730B4044654E8000F00EAD3
:10625000010544E80053002BF7D1156030BC7047AE
:1062600030B4044654E8000F80EA010544E80053C6
:10627000002BF7D1156030BC704730B4044654E8A9
:10628000000F00EB010544E80053002BF7D1156027
:1062900030BC704730B4044654E8000FA0EB010551
:1062A00044E80053002BF7D1156030BC704770B440
:1062B00004464FF0000054E8006F0D68AE4207BF7F
:1062C00044E80023012044E800630E60002B1CBF5B
:1062D0000020F0E770BC704730B4044654E8000F6B
:1062E00088422CBF451A054644E80053002BF5D1DF
:1062F000156030BC704700000648804706480047DC
:10630000FEE7FEE7FEE7FEE7FEE7FEE7FEE7FEE765
:10631000FEE7FEE71969020001620200202A04DBA1
:10632000203A00FA02F1002070479140C2F12003A8
:1063300020FA03F31943904070470000004870476B
:106340000C2B030040EA01039B0703D009E008C9B6
:10635000121F08C0042AFAD203E011F8013B00F82A
:10636000013B521EF9D27047D2B201E000F8012B76
:10637000491EFBD270470022F6E710B513460A46C5
:1063800004461946FFF7F0FF204610BD421C10F8E6
:10639000011B0029FBD1801A7047034611F8012B1D
:1063A00000F8012B002AF9D118467047064C074D1A
:1063B00006E0E06840F0010394E8070098471034D5
:1063C000AC42F6D3FFF720FF2C3203004C3203001F
:1063D00070B58C1810F8015B15F0070301D110F8A7
:1063E000013B2A1106D110F8012B03E010F8016BD4
:1063F00001F8016B5B1EF9D12B0705D40023521E57
:106400000DD401F8013BFAE710F8013BCB1A921CBE
:1064100003E013F8015B01F8015B521EF9D5A142BC
:10642000D8D3002070BD00002DE9F04700268AB0C7
:10643000DFF85091B0464FF4807501243746069638
:10644000284604F049FB38B1D9F80403204203D0B0
:10645000284604F037FB26432D1D64007F1CADB297
:10646000082FEDD34FF4BE74204604F035FB48B13D
:10647000204604F027FB46F0004606AA0121002032
:1064800004F00CFB404D16F0FF0F15D0012700243F
:1064900037420DD009EB8401D1F81005D1F8101561
:1064A000C0F3042055F82420C1F3014102B1904704
:1064B0007F00641C082CEBD3002E5FDA4FF0FF3016
:1064C000CDF8108054E0281910F8507F90F90000A2
:1064D00027F0C008401C3BD007A9404603F05DFDF3
:1064E00010B34FEA9719404601F060FE55F820704E
:1064F0001FB1B9F1030F03D006E0B9F1030F27D1A3
:1065000004A9404603F051FD4FF0A04101EB880083
:10651000D0F8000706A9C0F3014A404603F03DFD4C
:1065200018B1BAF1020F03D012E0BAF1030F0FD184
:10653000B9F1030F08D1BAF1020F1DD00221404674
:1065400004F073FA761CF6B217B149464046B847D4
:10655000641C042CB7D3002E10D06A460121002001
:1065600004F09CFA06990098884207D00690049897
:10657000002634460790A6E70321E0E70AB0BDE80D
:10658000F087000000600040EC41002000F01F0296
:10659000012191404009800000F1E020C0F8801204
:1065A000704700F01F02012191404009800000F176
:1065B000E020C0F80011704700F01F020121914057
:1065C0004009800000F1E020C0F800127047490740
:1065D000090E002806DA00F00F0000F1E02080F834
:1065E000141D704700F1E02080F80014704700008F
:1065F00070B54FF48076304603F011FE114CB505AE
:1066000060B1304603F012FE0120C5F8080360793E
:1066100020B9012060712168002088474FF48276FC
:10662000304603F0FCFD00280AD0304603F0FEFDA2
:106630000220C5F808032168BDE870400120084722
:1066400070BD00001823002007480021C0F8401149
:10665000C0F84411C0F84811C0F84C11C0F800113E
:10666000C0F8041107F0F6B800100140F8B50D4B62
:106670000646144618780D4608B900F0E1FA0020E5
:106680008DF80000684600F02DFF2246294630466E
:1066900000F00AF804469DF8000000F047FF20468D
:1066A000F8BD00008849002070B50E46144900EB83
:1066B000400001EBC0051446E86A183520B10128F6
:1066C0000FD0022805D113E0284600F0EDFAA042D1
:1066D00001D2002411E022463146284600F00AFC8F
:1066E0000BE0284600F0E0FAA042F4D20446F2E7BC
:1066F0003146284600F0D1FB0446204670BD00001C
:106700008849002070B505460C460846FFF73EFE56
:10671000024621462846BDE87040FFF7A7BF0FB4E8
:1067200008B504A900916A46039900F003F801B086
:106730005DF814FB2DE9F04198B0064607A80290D9
:1067400040200025CDE90305CDE9055690460C46CD
:1067500014F8011B002973D0252908D002A800F0E5
:106760007DFB05980028F3DA18B0BDE8F081002021
:1067700001212278232A1ED02B2A19D02D2A02D0BB
:10678000302A08D102E040F0010001E040F00200B0
:10679000641C0029EDD100222178A1F130030A2BDD
:1067A0000CD202EB820201EB4202303A641CF3E7A6
:1067B00040F00400ECE740F00800E9E70023CFB226
:1067C0002E2F0BD114F8011FA1F130070A2F05D28B
:1067D00003EB830301EB4303303BF3E76C290DD05C
:1067E00068290BD0702954D00BDC252916D05829E4
:1067F00031D063290CD0642913D114E014F8011F9F
:10680000ECE7732934D075291BD0782909D122E00F
:10681000D8F80000011DC8F80010017802A800F0A7
:106820001DFB641C9DE7D8F800100F1DC8F8007010
:106830000968CDE900200A2202A800F041FAF0E739
:1068400033E0D8F800100F1DC8F800700968CDE9D2
:1068500000200A2208E0D8F800100F1DC8F80070C8
:106860000968CDE90020102202A800F08DFAD8E7CF
:10687000D8F80000011DC8F80010076817F8011BC0
:106880000029CED002A800F0E9FA05980028F5DA30
:10689000C7E7D8F80000011DC8F8001001680820FB
:1068A000CDE9000503461022DEE7059800287FF7B2
:1068B0005BAF049820B1024607A93046FFF7D6FE29
:1068C000DDE90410084405904EE7000038B50E4895
:1068D0000E4C0025C0F80851D0F80811009121464F
:1068E00006F0F2FF00280ED1A07FFF2801D004F0AF
:1068F000BBF865772572D4E9002101B004F10800E6
:10690000BDE83040104738BD0030004098420020BC
:1069100006F0EEBE04F02ABEF0B5B5480023021D15
:106920000178101D01254FF0805406290BD11678EF
:10693000360708D10678C6F30316032E06D0042EB8
:1069400004D0052E02D0062907D00EE0B4F8246347
:10695000A84FC6F304263E6002E01678360704D13D
:106960000678C6F30316032E02D0062904D00FE0E2
:10697000A24FA14E7E670EE01678360708D1067842
:10698000C6F30316032E06D0042E04D0052E02D023
:10699000062907D00EE0D4F84462994FC6F3423678
:1069A0003E6002E01678360704D10678C6F3031677
:1069B000032E02D0062906D011E0924E376827F048
:1069C000807737600EE01678360708D10678C6F370
:1069D0000316032E06D0042E04D0052E02D006295D
:1069E0000AD011E04FF08046C6F80C31C6F81031DD
:1069F000834E361F336002E01678360704D10678DE
:106A0000C6F30316032E02D0062905D00CE07C4FF6
:106A1000032664373E600AE01678360704D106780C
:106A2000C6F30316032E02D006290DD014E0764FCC
:106A300005263E60744E78363560734E08363360F6
:106A40003F263F1D3E6002E01678360704D10678E7
:106A5000C6F30316052E02D0062957D062E06B4E0E
:106A600036686B4F3E60694E361D36683F1D3E608E
:106A7000664E083636683F1D3E60644E0C363668FA
:106A80003F1D3E60614E103636683F1D3E605F4ED2
:106A9000143636683F1D3E605C4E183636685C4FD3
:106AA00020373E60594E1C3636683F1D3E60574EBB
:106AB000203636683F1D3E60544E243636683F1DF2
:106AC0003E60524E283636683F1D3E604F4E2C3693
:106AD00036683F1D3E604D4E303636684C4F40376D
:106AE0003E604A4E343636683F1D3E60474E38366B
:106AF00036683F1D3E60454E3C3636683F1D3E6061
:106B0000424E403636683F1D3E6002E0167836073A
:106B100008D10678C6F30316032E06D0042E04D03F
:106B2000052E02D0062907D019E0D4F85812394AA8
:106B300001F04F01116002E0117809070FD10078D0
:106B4000C0F30310032803D0042801D0052806D180
:106B500031480168C90702D06FF001010160D4F823
:106B60003001062808D1D4F83401062804D12B4876
:106B7000016841F48061016022487438016841F481
:106B800070010160BFF34F8FBFF36F8F4FF0102183
:106B9000D1F80002002803DBD1F80402002822DA31
:106BA0001F4A15601F480468002CFCD01524C1F84A
:106BB00000420568002DFCD0C1F80442016800299C
:106BC000FCD0136001680029FCD0BFF34F8F0D4843
:106BD000F0380168144A01F4E06111430160BFF329
:106BE0004F8F00BFFDE7124910480860F0BD00005C
:106BF000E00F00F0403501400DF0ADBA00C0074095
:106C00003C050040FCED00E010560040040400107C
:106C100020C50040E40E0040000400403C17004046
:106C200004E5014000E401400400FA050090D003AF
:106C3000E4230020014800680047000020230020D2
:106C400010B5124C02202061606111A0A06104F116
:106C50007800E0614FF4007020620020A062606262
:106C60000BA1A164E06204F51E71E1641021A0652E
:106C7000C4E91410E06509A1E01DFFF78EFB08A12F
:106C80002046FFF78AFB2020A07110BD8849002014
:106C90005465726D696E616C0000000052545400BE
:106CA00053454747455200000269C1688A4203D8EC
:106CB0008068401A104400E0501A401E70470000DF
:106CC0002DE9FC5F0E008146DDE90C47C6F10000AE
:106CD00098469346824600D40846012503E000BF4B
:106CE00090FBFBF06D1C5845FADAA84500D94546E3
:106CF00024B1002E01DB780700D5641EB80702D549
:106D0000B8F1000F0FD0F8070DD164B1A5420AD237
:106D100020214846641E00F0A1F8D9F80C00002894
:106D2000F3DABDE8FC9FD9F80C000028F9DB002E4F
:106D300002DA56462D2102E0780707D52B21484676
:106D400000F08CF8D9F80C000028EADB07F003000B
:106D500002280FD1B8F1000F0CD15CB1A54209D2C5
:106D600030214846641E00F079F8D9F80C0000285C
:106D7000F3DAD6E7CDE9004743465A46314648465E
:106D800000F002F8CDE700002DE9F84F8246DDE97A
:106D90000A4B0126984691460D460846374602E0C2
:106DA000B0FBF9F07F1C4845FAD2B84500D94746F8
:106DB0005FEACB7017D1B4B15FEA8B7002D5B8F13E
:106DC000000F02D0202000900BE03020FBE750465F
:106DD000641E009900F042F8DAF80C00002838DB55
:106DE0000CB1A742F3D3DAF80C00002831DB00BF66
:106DF000B8F1010F02D9A8F1010803E0B5FBF6F0E4
:106E0000484502D306FB09F6F2E7DFF84C8000BFE5
:106E1000B5FBF6F000FB165518F80010504600F0D0
:106E20001DF8DAF80C00002803DBB6FBF9F6002E9B
:106E3000EED15FEACB700CD0002C0AD0A74208D26A
:106E400020215046641E00F009F8DAF80C000028F2
:106E5000F2DABDE8F88F0000D429030010B504462B
:106E6000D4E90130421C934205D323681954A2602F
:106E7000E068401CE060D4E90102824209D1216847
:106E80002069FFF7F3FBA168884203D04FF0FF3081
:106E9000E06010BD0020A06010BD2DE9F047C4687F
:106EA0001746894606464FF000083069A04201D9CE
:106EB000051B02E0B168201A0D1AB0686D1E001B98
:106EC000A84200D80546BD4200D33D4670682A4618
:106ED00020444946FFF736FAB0687F1B2C44A8448B
:106EE000A944A04200D10024F460002FDDD1404627
:106EF000BDE8F0872DE9F04104468846D4E9020751
:106F0000C51BE168606816460844B54206D941468B
:106F1000FFF718FAB819E060BDE8F0812A4641464B
:106F2000FFF710FA761B08EB050132466068FFF7A1
:106F300009FAE660F0E702E008C8121F08C1002A5B
:106F4000FAD170477047002001E001C1121F002AEA
:106F5000FBD170470121202803DA81400548014018
:106F600003E0402802DA2038814009B1012070474F
:106F700000207047FC06FFBD082806D228B1012872
:106F800003D0042801D00120704700207047000082
:106F900030B52548A5B03C21006824902348807C6A
:106FA0008DF892006846FFF7E6F902208DF80000A0
:106FB00001248DF8024006208DF803003C210FA823
:106FC000FFF7D9F924A81A4D1490ADF84C402A1DAA
:106FD0006846296800F04CFB08B100F0DFF8144A5D
:106FE0000FA80C32A96800F043FB08B100F0D6F8F6
:106FF00018211EA8FFF7BFF900208DF88D408DF8ED
:107000007840ADF884001F908DF88C00402008492E
:1070100020901EAAA1F1140072DF002801D000F018
:10702000BDF825B030BD00005C13030034240020FF
:10703000D4220020064810B50121007873DF08B182
:1070400000F0ACF8BDE81040002000F067BF000081
:10705000C022002070B50024084D05E0686810F8D3
:10706000340004F05FFB641C28788442F6D30448A3
:107070004068BDE8704000F025BA000028230020D9
:107080009C27030070B50024064D06E068680121C6
:1070900010F8340004F06AFB641C28788442F5D3AD
:1070A000002070BD28230020F8B515460C46064682
:1070B000052A01D20720F8BD04F054FC18B904F0E9
:1070C00019FC0028F7D1124900224E600C708D6027
:1070D000C1E90422C1E906220E4D0DE006EBC40011
:1070E0002968009181788DF8011000780A4A694674
:1070F00004F08EFB0028DED1641EE4B2EED2BDE8BF
:10710000F84004480021054A001D00F059B900006C
:10711000282300209C270300E19402009D870200A1
:1071200072B603F077FF00BF03F0B6FD0028FBD175
:10713000104C0121208801EB00400FA103F0BCFEA0
:1071400010480068C00700D000BE2088022101EB73
:1071500000400DA103F0B0FEBFF34F8F0948E438A3
:1071600001680D4A01F4E06111430160BFF34F8FE4
:1071700000BFFDE714240020466174616C20657235
:10718000726F7200F0ED00E053797374656D2072D8
:1071900065736574000000000400FA050EB5002157
:1071A0000091CDE901106A4644F20100FFF7B8FFF3
:1071B0000EBD0000144B10B593F822402CB193F88B
:1071C0002240032C03D0112010BD082010BD82B135
:1071D000042483F822409C7A240700D44902C3E99E
:1071E00003019A820020DA829883012A03D952206F
:1071F00002E0072010BD5120012205F081FA08B1FC
:10720000FFF7CCFF002010BD0844002070B5194BDB
:10721000144693F822202AB193F82220032A03D09F
:10722000112070BD082070BDECB1052283F822202A
:107230009A7A150700D44902C3E903019C82002011
:10724000DC829883012C10D002F0070001284FF057
:1072500001020DD02146D72005F052FA08B1FFF700
:107260009DFF002070BD072070BD01225820F3E76C
:107270005920F1E708440020054890F8221003291E
:1072800004D090F8220008B1012070470020704718
:1072900008440020044890F82210032901D3001D5F
:1072A000704700207047000008440020F0B52F4CC4
:1072B000054687B094F822000F4610B1082007B0A9
:1072C000F0BDEFB3E878FF284DD06978FF294AD0A8
:1072D0002978FF2947D0A978FF2944D0002684F8CF
:1072E00058000122009633461146019603F03FFBF9
:1072F00094F8580003F0BFFB1D4B0DF1080C0FCBA9
:107300008CE80F00A8788DF8080028788DF809001F
:1073100068788DF80A0016480023164A02A910382A
:1073200002F0D0FF08B1FFF739FF44F8227B0120BB
:1073300004F81909607820F00F006070A67600E06C
:1073400011E0FF20E0770A20084B0090084838330E
:107350000122A3F11001103802F0C8FF08B1FFF7B5
:107360001DFF0020ABE70720A9E70000084400202C
:107370003829030055D202007CB50F4D95F8220044
:1073800028B195F82200032803D011207CBD0820E5
:107390007CBD0A4804F0EEFB002495F858000094E8
:1073A0002346224621462235019403F0E0FA6C7010
:1073B0002C7000207CBD0000084400202C29030014
:1073C000084B9B7823B12AB120B10068037C1BB124
:1073D00008207047072070470023037441744261FE
:1073E00018467047E442002070B505F063F8104875
:1073F00000240B21047044700E4D817014206C60C9
:107400002C706C70FFF7C2F807211420FFF7DFF82B
:107410001420FFF7C6F80848046007211120FFF781
:10742000D6F80548001F0068A860002070BD000065
:10743000E442002048230020081501402DE9FC47C4
:10744000DFF8789099F8023073B368B3052902D257
:107450000720BDE8FC87436933B3437C012B25D06B
:10746000002704460025884616468DF800506846D9
:1074700000F038F801A806F089FCC8B101210170BC
:107480000F4944600968C0E90218C0E904769DF814
:10749000040089F801009DF8000000F047F814206E
:1074A000FFF78AF82846D4E70820D2E70F46D8E746
:1074B00004259DF8000000F039F8F3E7E4420020CD
:1074C000041501400649897839B130B1416921B1CB
:1074D00000210174022106F099B9082070470000CC
:1074E000E442002030B5EFF3108172B60D4A946883
:1074F000012324B10370002900D162B630BD93602E
:107500004FF0E023D3F88051074C25401560C3F8B5
:107510008041D3F8844154605A17C3F88421002273
:107520000270E8E7F0430020FC06FFBD0B498A68C3
:10753000002A11D000280FD1EFF3108072B60B682B
:107540004FF0E022C2F800314B68C2F8043100224B
:107550008A60002800D162B670470000F043002026
:107560002DE9F041064608680C46411C4FF0A04743
:107570004FF0010506D005FA00F1C7F8081520689C
:1075800003F035FA6068411C02D0002103F013FAC1
:107590003168A069C1F82405607D227D31681043FF
:1075A000C1F86C05D4E900123068C0F81425C0F8A1
:1075B0000C15207D012815D1A068411C02D00021A6
:1075C00003F0F9F9E068411C05D08540C7F808557B
:1075D000E06803F00CFAD4E902123068C0F808251C
:1075E000C0F81015BDE8F0812DE9F04106460868A5
:1075F0000C46411C4FF0A0474FF0010506D005FA9C
:1076000000F1C7F80815206803F0FBF96068411C19
:1076100002D0002103F0D8F93168A069C1F824052F
:10762000607D217D32680843C2F86C05D4E9001200
:107630003068C0F80C15C0F81425207D012815D13C
:10764000A068411C02D0002103F0BEF9E068411C93
:1076500005D08540C7F80855E06803F0D2F9D4E9B1
:1076600002123068C0F80825C0F81015BDE8F08196
:107670002DE9FC47002517880646158090F82D0057
:107680001446894630B13A462146484600F0E6F8AD
:10769000051E09D1B0784FF00C0A18B32088C846EF
:1076A000001DB84202D95046BDE8FC87684679DF24
:1076B0000028F9D12088032108F80010208819211A
:1076C000401C80B2208008F800102088401C80B246
:1076D000208000EB0801BDF8000006F0B1FA218817
:1076E00008442080F0780222C8B1218896F903303E
:1076F00001F1030C4846BC45D5D8425421884FF0CF
:10770000010C491C89B2218000F801C02188491C64
:1077100089B2218009F801302088401C20807068DF
:10772000B8B1218890F9003001F1030C4846BC45FE
:10773000B9D8425421880A22491C89B22180425476
:107740002188491C89B2218009F801302088401C19
:107750002080308950B1CDE900474B4606220221F6
:1077600006F1080006F02AFB051E9DD1308A50B1B3
:10777000CDE900474B460722032106F1100006F031
:107780001DFB051E90D1308B50B1CDE900474B4613
:107790001522142106F1180006F010FB051E83D1F6
:1077A000306A30B13B462246494600F04EFE051E87
:1077B000DBD1706A30B13B462246494602F056FAA8
:1077C000051ED2D196F82C0038B13B4622464946D8
:1077D000304605F0EFFB051EC7D1307838B13B4687
:1077E00022464946304602F0F0FA051EBDD1284631
:1077F0005AE7000070B5040012D001461C2214485C
:10780000FEF7A0FD1248134D0560206850B17ADFE5
:10781000002806D12068016829604068686005E09A
:107820000E2070BD0B487BDF0028FAD108484FF6C8
:10783000FF711438084A20F8041B054934390160E7
:107840000021FFF7BDFD0028EBD0032070BD000034
:107850002C4100200423002001DD02007CB50546F8
:1078600008880C460930904201D90C207CBD68463E
:107870006DDF0028FAD121880820685420881B2158
:10788000401C80B2208029542088401C80B2208077
:107890002844DDF801100160BDF8051081802088C2
:1078A000801D80B220809DF80010490800D0012181
:1078B00029542088401C208000207CBDF8B5314D23
:1078C000028804466E88212A47D011DC2E484FF0EA
:1078D0000301102A008801EB004013D0112A2AD09E
:1078E000132A43D100231A46852130467FDF1CE04E
:1078F0003B2A42D0522A3AD0562A37D180881321C7
:1079000076DF12E021A103F0D7FA012000F006FB98
:10791000002000F0FBFAA18869801F4802F004FCF7
:1079200008B1FFF73BFCFFF7ADFB00281ED0BDE818
:10793000F840FFF733BC19A103F0BEFA012000F0B4
:10794000E5FA4FF6FF706880FFF784FB08B1FFF798
:1079500025FCBDE8F840FFF76DBB00200090A08833
:1079600069468FDF002801D0FFF718FCF8BD00231F
:107970001A4619463046B1DFD7E78088132176DFF3
:10798000D3E70000C022002014240020436F6E6E55
:1079900065637465640000006024002044697363BB
:1079A0006F6E6E6563746564000000002DE9F0473A
:1079B00001883B4E40F2F3194FF6FF7510291BD09A
:1079C00011293ED0122954D0502946D1C188F289BC
:1079D000841D914241D1618902293ED18688304679
:1079E00001F0EEFD050038D004F10C0000F058F96C
:1079F000A8B3294630464EE0C17B8788044601295A
:107A00002BD1A846284601F0DBFD050017D02F80BA
:107A100000202872234843464A460168C5F80A10E8
:107A20004068C5F80E0004F1100105F10A0001F0EC
:107A30008BFE6872F08900280FD129462AE00420C5
:107A400013E0808801F0BCFD040006D06068FFF7F9
:107A500039FD08B105F086FA2580BDE8F087FFE71B
:107A60006868FFF72FFD0028F7D0BDE8F04705F064
:107A700079BA87880646384601F0A2FD0400ECD0AA
:107A80002B464A4606F1080104F10A0001F05CFEAB
:107A9000607221463846BDE8F04700F01DBD000089
:107AA0002C410020042300202DE9F04F0746858853
:107AB00002883D48012197B08346102A09D0112A37
:107AC00049D01A2A6CD1387AB1EB101F45D2012265
:107AD00044E0354C083CA068C0430B9061680BA89B
:107AE00002F0EDF90B990CA800F090FC2C220CA9E7
:107AF0006846FEF727FC0026E946A04610E000BFD6
:107B000009EB46005FF00004B0F804A008EB840025
:107B10005146001D02F0A7F9641C1D2CF6D3761CFB
:107B20000098B042ECD8142D05D317B00420BDE85E
:107B3000F04FFFF733BB2946584602F0AAF9294611
:107B400008F1040002F0A5F9F87B012828D01648B6
:107B50002946001D15E029461AE000220221B1EB5A
:107B6000101F01D2012600E000260F49083901F15B
:107B70001000041D294682B102F08BF936B1294666
:107B8000204617B0BDE8F04F02F083B929462046E1
:107B900017B0BDE8F04F02F066B902F064F9F5E7FE
:107BA00017B0BDE8F08F00005041002030B504460A
:107BB000134B85B008680D4660610FCB8DE80F0050
:107BC00004F11201684662DF002816D1A07C8DF80E
:107BD000120041F22350ADF81000224604A9012002
:107BE000A8DF002809D12946204600F00BFA00281A
:107BF00003D12946204601F0ECFD05B030BD000060
:107C00007C27030030B40288502A10D1034630F894
:107C1000062F4C88A2420AD14289012A07D14C6919
:107C2000002C04D0027B9888A44630BC604730BC4E
:107C3000704707B586B0012200230093ADF81020ED
:107C40000193029303938DF802204989ADF8001047
:107C500008A9039104A902916946AEDF09B000BDED
:107C600030B40288102A14D0112A14D0502A15D109
:107C7000034630F8062F8C88A2420FD14289012A90
:107C80000CD1CC68002C09D0027B9888A44630BC6B
:107C90006047808801E04FF6FF70088030BC704775
:107CA000007800F001007047087A0A782AB1012AAA
:107CB00003D0022A01D0032A09D100EB4002044874
:107CC0004978406800EB82000172002181727047A0
:107CD000F4220020806970472DE9FE430E460169B9
:107CE00084698046B1F5007F02D00620BDE8FE839E
:107CF000134D696809B11120F8E7A660A2616860B8
:107D000010491430FFF7D2FA070008D1A6B900BF16
:107D1000FFF7B2FA0028FBD1287878B10D270020B0
:107D200068604EB1084A07CA8DE80700A069029052
:107D3000A2686946404690473846D7E70027FBE7E8
:107D400064230020B9C702007829030019B1012972
:107D500006D0062070470AB100201070002070473E
:107D600012B1001D1060F9E707207047FEB51C4FE7
:107D70000646846978680D46B04202D1FFF77CFA66
:107D800008B11120FEBD95E8070004F10C0383E85B
:107D90000700A888296882B2A868FFF70BFA0500D7
:107DA00009D1A068C0B900BFFFF766FA0028FBD16F
:107DB000387898B10D25A06870B16DB10948016B94
:107DC000806B029004F10C00CDE90010A0690290D4
:107DD000A2686946304690472846FEBD0025EAE77E
:107DE0006423002060290300FEB5124F0446856914
:107DF0007868A04202D1FFF73FFA08B11120FEBD1A
:107E0000FFF7BAFA060000D17860A86878B10A498D
:107E100007C98DE807000EB1012000E000208DF8B1
:107E20000100A8690290AA6869462046904730463A
:107E3000FEBD00006423002084290300FEB51C4F12
:107E40000646846978680D46B04202D1FFF714FAFD
:107E500008B11120FEBD95E8070004F10C0383E88A
:107E60000700A888296882B2A868FFF7CFF9050043
:107E700009D1A068C0B900BFFFF7FEF90028FBD107
:107E8000387898B10D25A06870B16DB10948C16B03
:107E9000406C029004F10C00CDE90010A069029042
:107EA000A2686946304690472846FEBD0025EAE7AD
:107EB00064230020602903002DE9FC410646C00729
:107EC0004FF000050ED0104F00240122385D0095C0
:107ED00000231146019502F0F0FC641C042CF4D33D
:107EE00000F024F8B0070DD5074E0024361D0022FF
:107EF000305D032300951146019502F0DEFC641C01
:107F0000042CF4D3BDE8FC815C2703000249085C23
:107F1000012102F0B7BD00005C2703000249085CA4
:107F2000002102F0AFBD00005C27030010B5002463
:107F30002046FFF7EBFF641C042CF9D310BD0000B2
:107F40002DE9F8430546861C00208DF80000904678
:107F50000F464FF001096846FFF7C4FA1B4C206832
:107F60003860D4E90001401AA16804F21C47081ADD
:107F70000EE00121384601F09CFF01F02DFD014685
:107F8000384601F096FFD4E90001401AA168081AAA
:107F9000401C8642EDD8B8F1000F03D0052065F3F0
:107FA000891002E0062065F39F50A2682168114005
:107FB00004EB8101C8602068304420609DF8000017
:107FC000FFF7B4FA4846BDE8F88300006445002096
:107FD00030B482680468531C8360A154D0E9011254
:107FE0008A4202D330BC02F0CEB930BC70470000E8
:107FF000034803C8814201D1012070470020704727
:108000006445002030B58FB00024054607949DF8E4
:108010001C001C2120F00F00401C20F0F00010304C
:108020008DF81C009DF81D0020F00F00401C20F072
:10803000F00010308DF81D009DF81E0020F00600A5
:10804000801C8DF81E006846FEF795F99DF800002B
:10805000019440F012008DF8000007A8CDE904401B
:1080600003940694A87C8DF83A0041F22450ADF8B0
:1080700038000D949DF83400142120F00F00401CAE
:1080800020F0F00010308DF834009DF8350020F01D
:10809000FF008DF835009DF8360020F00600801CAA
:1080A00020F019008DF8360008A8FEF764F90EA834
:1080B00008900DA809900120ADF82800ADF82A40DD
:1080C000ADF82C000C94288805F10A0308AA69462B
:1080D000AADF0FB030BD000010B50C460D2819D135
:1080E0000F480321008801EB00400EA102F0E4FEDE
:1080F0001448224612494088FFF79BFD00280DD006
:10810000A0F54051023909D0082807D043F20141B7
:10811000884203D0BDE81040FFF740B810BD000012
:108120001424002053656E6420627574746F6E2091
:108130007374617465206368616E67652E0000006A
:1081400034240020C022002005494FF0FF320828C7
:1081500041F8202002D3084480F8482070470000EE
:10816000EC410020F0B54FF0FF3512B10023082696
:1081700001E008230C260C4C05E000BF54F82370E6
:108180007F1C04D05B1CB342F8D32846F0BD2618F0
:108190005DB286F8305044F82310002AF5D1E1187A
:1081A00081F84800F1E70000EC4100200249084452
:1081B00090F9300070470000EC41002010B50446F3
:1081C0000020E070401EE062204601F0E5FD08B1AD
:1081D000042010BD04F22E2001F0F6FAA0F52A4189
:1081E000553901D0032010BD94F83000E92805D09E
:1081F000EB2814D194F83200902810D104F16600D5
:1082000001F0D7FA0749B1EB002F06D004F1820044
:1082100001F0CFFA0449884201D1002010BD0220AC
:1082200010BD0000004641544641543370B5084C1F
:10823000050009D010342168002907D008682060A3
:10824000496828468847F6E70834F4E770BD00001F
:10825000C0410020054A012120B1012805D19170BB
:10826000FFF7E4BF51700020FAE77047C0410020DB
:108270004269891E921E8A4201D800207047826A94
:10828000408901FB0020704710B5042002F0E5FB97
:10829000C82001F0D3FF042002F0D8FBC82001F071
:1082A000CDFF042002F0D9FBC82001F0C7FF05F084
:1082B00005FE122005F0DFFE05F000FE012005F0AE
:1082C000DAFEC72005F0E6FE002005F0E3FE0120FF
:1082D00005F0E0FE112005F0CEFE012005F0DAFEEB
:1082E000442005F0C8FE002005F0D4FE182005F05B
:1082F000D1FE452005F0BFFEC72005F0CBFE0020D3
:1083000005F0C8FE002005F0C5FE002005F0C2FE05
:108310003C2005F0B0FE012005F0BCFE182005F061
:10832000AAFE802005F0B6FE222005F0A4FEB120B2
:1083300005F0B0FE202005F09EFE4E2005F09BFECD
:10834000002005F0A7FE4F2005F095FEC72005F0A0
:10835000A1FE002005F09EFEBDE8104005F0AEBD78
:108360002DE9F05F26484168F1B3DFF898B00E6858
:108370008146DBF8004087688078E11B21F07F456B
:10838000ED1CB0B9DFF880804FF48030C8F84403AA
:10839000C8F804031120FEF7F9F81120FEF701F9DF
:1083A0004FF0010AC8F800A02F2003F0B3F989F8B4
:1083B00002A0B54200D23546124BE8193C3320F0FA
:1083C0007F401860DBF800105A46091B21F07F41FE
:1083D000001B20F07F40C91C81420FD91068186033
:1083E0002F2003F097F900E004E0BDE8F05F1120D2
:1083F000FEF7E2B8BDE8F05F04F05CB8BDE8F09FBE
:1084000048230020041501400010014073B58CB0D2
:108410000646002000900D9880B100246D4621464C
:108420000DA801F02BFD30B1009805EB40008480D1
:108430000098401C0090641C142CF0D32C22694638
:108440003046FDF77FFF0EB070BD2DE9F041178873
:108450000646B81D14460D46984202D90C20BDE8C8
:10846000F0813188072206290AD34FF4486C4FF671
:10847000FF73614501D9994202D17088062801D263
:108480001046ECE7604501D99842F9D1994203D0F2
:10849000984201D08142F3D80520E8552088122166
:1084A000401C80B2208029542088401C80B220804B
:1084B0004119308805F0C4FB2188084480B220802F
:1084C0004119708805F0BCFB2188084420800020F9
:1084D000C5E7FEF763BE000038B54A7A0F4B62B1BC
:1084E00000220A725969002906D001228DF8002065
:1084F000ADF802006846884738BD0A7A62B19B68C9
:108500004C68024619462046FEF798FF0028F3D033
:10851000BDE8384004F026BD5B68F1E72C4100203F
:108520002DE9F04105680F00804606D000F05AFFA3
:10853000022809D20120BDE8F081EE6816B1686911
:10854000B04207D8012605E0411CF4D06969814298
:10855000F1D83E4634466869641CA04202D8022421
:10856000022E0AD32146404600F03CFF38B10128D4
:10857000E1D0411CDFD0B442EDD10020DBE74FF069
:10858000FF3632462146284603F0C8FE30B957B1BF
:1085900022463946284603F0C1FE20B101280FD0FB
:1085A00001242046C7E7EC60D5E90401891E884212
:1085B00001D2401E2861287940F001002871F0E7BF
:1085C0003446EEE72DE9F0410E4620300D680446B2
:1085D0000B22202101F086FB0020014608232A5CA3
:1085E000401C202A12D92F2A0BD05C2A09D02E2A0F
:1085F00001D0994214D30B2B37D02E2A35D10CE061
:10860000401C2B5C2F2BFBD05C2BF9D02844306016
:1086100059B32078E52834D035E008210B23DEE774
:10862000A2F181071E2F02D95F3F1C2F13D82F5CA8
:10863000401CA7F1400CBCF13F0F04D3A7F1800C04
:10864000BCF17D0F11D2A3F1010C61450DD2625432
:10865000491C675413E010A700E07F1C97F800C086
:10866000BCF1000F04D09445F7D10620BDE8F0819D
:10867000A2F16107192F01D8203AD2B26254491CE5
:10868000ADE705202070202A01D8042000E000205A
:10869000E0720020EAE70000222A2B2C3A3B3C3D06
:1086A0003E3F5B5D7C7F0000F0B587B00746002051
:1086B0000490ADF810100590ADF8121001900290E2
:1086C00001AA04A9384690DF060022D002F0C8FFB4
:1086D000114C0346012520883A4605EB00400F491E
:1086E00002F0F5FBBDF8042012B9BDF8060038B160
:1086F0002088BDF8063005EB004009A102F0E7FB39
:10870000BDF808202AB12088154905EB004002F089
:10871000D7FB07B03046F0BDE8230020242B030030
:10872000546865207265717565737465642054586A
:108730002F5258207061636B6574206C656E67748E
:108740006820697320746F6F206C6F6E6720627988
:108750002025752F2575206F63746574732E0000B6
:10876000702B030020BF704710B5012A11D1094CAE
:10877000606801F0FBFF08B1FEF710FD064805F048
:10878000C3FC606801F0F0FF6068BDE8104002F0D3
:108790007DB810BDC0220020B81303002DE9F047BA
:1087A0000025DFF88C803CE06068002100EBC50606
:1087B000012032789146FDF7B1FDD4E9062300EAA5
:1087C000020701EA030C57EA0C0728D082438B43C7
:1087D0004846C4E9062303F083F83278824691467E
:1087E00001200021FDF79AFDD4E9042300EA0204E8
:1087F00001EA03074A4650460021FDF78FFD444039
:108800004F403C430BD17078012801D0012100E09A
:108810000021726881EA0A010AB1484690476D1C3E
:10882000EDB298F8000044468542BDD3BDE8F0871C
:10883000282300202DE9F04104460021056800F0BE
:10884000D8F8002826D12846A16901F0A5FA02002F
:108850001FD1E069017899B1C17A01F03F01A1719E
:10886000C17A09070FD404F120010B2610F8013B4F
:1088700011F8017BDB1B761E04D0002BF6D002E042
:10888000042206E02BB10021204600F005F802008A
:10889000D9D01046BDE8F0812DE9F04705460769BB
:1088A000046880698946203710B1B7F5001F02D3EC
:1088B0000420BDE8F087F90560D1401CA861696912
:1088C0004FF0000829B16089401E10EA572F05D0EB
:1088D00054E02089B0EB571F1DD94FE0284600F027
:1088E00081FD064601281BD9701C33D06069B04257
:1088F0003ED8B9F1000F0ED028466969FFF710FE87
:1089000006000BD0012E0BD0701C23D0204604F0A3
:1089100087FEF8B906E0C5F81880C9E70720C8E760
:108920000220C6E74FF40072002104F1300001F08C
:10893000D9F94FF0000831462046FFF799FC4FF077
:108940000109E0620DE000BF84F80390204604F0C6
:1089500067FE08B10120ACE7E06A08F10108401C9D
:10896000E06261894145EFD8E16AA1EB0800E0626D
:10897000314620466E61FFF77BFCA861C7F3080013
:10898000204430302F61E861002092E770B5044642
:108990000021066800F02DF80DE03046A16901F0D5
:1089A000FBF950B9E0690078E52809D040B1012110
:1089B0002046FFF771FF0028EFD0042807D007E01A
:1089C0003046A16901F0E8F9050003D00FE0072067
:1089D00005460CE020220021E06901F083F90B221A
:1089E00004F12001E06901F073F90120F0702846DC
:1089F00070BD2DE9F04107680E460546B1F5001F30
:108A000036D2F00634D12E61AC6824B93878032808
:108A100005D37C6A1CB178894FEA402812E0388976
:108A2000B0EB561F24D9786A12E0284600F0DAFC31
:108A30000446401C1AD0022C1AD37869A04217D9D8
:108A4000A6EB080646452146EFD23846FFF710FC54
:108A5000C5E9054060B100EB5620A861C6F30800E7
:108A600038443030E8610020BDE8F0810120FBE7A8
:108A70000220F9E770B51C4C217888420DD261685C
:108A800000EB400551F825303BB101EB85014A7AF6
:108A9000D20704D04A6822B105E0032070BD487AAD
:108AA00070BD124A4A6001228A7202461868104953
:108AB00006681846B04710B110E04068804760680B
:108AC00000EB8500817A0029F7D1616801EB85010F
:108AD000097A19B9417A21F001014172606800EB0D
:108AE0008500407A70BD0000F422002065870200F6
:108AF000A97C020038B51D4D2B78984201D3042083
:108B000038BD00EB400439B118480129406815D040
:108B100002291DD0012038BD01208DF800006868B1
:108B20006A46002150F8240001F076FB08B11128B4
:108B300017D19DF800000028F1D112E050F8240070
:108B400088B101681446496988470068206008E0D8
:108B500050F8240038B10168144649698847808874
:108B60002080002038BD032038BD0000F422002002
:108B7000FEB51D4C2578A8420DD263B100EB40052F
:108B8000606850F8256026B100EB8506777AFF070C
:108B900003D00320FEBD0420FEBD0092CDE90131CB
:108BA0000121B17250F825606F4630684169304646
:108BB000884700680099884214D93068394682682D
:108BC0003046904710B10DE040688047606800EB88
:108BD0008500817A0029F7D1606800EB8500007A72
:108BE0000028D9D00120FEBDF422002006490A78D1
:108BF000904201D301207047496800EB400001EB2F
:108C00008000407A70470000F4220020FEB5204C1E
:108C10002578A8420DD263B100EB4005606850F89A
:108C2000256026B100EB8506777AFF0703D0032085
:108C3000FEBD0420FEBD777A7F0701D50220FEBD70
:108C40000092CDE901310121B17250F825606F46E3
:108C5000306841693046884700680099884214D9D5
:108C600030683946C2683046904710B10DE0406820
:108C70008047606800EB8500817A0029F7D1606841
:108C800000EB8500007A0028D9D00120FEBD00004D
:108C9000F4220020014A506011707047F422002035
:108CA00010B50021024801F015F980F3100010BD45
:108CB000804900200E4910B50A784C780023A24262
:108CC00012D0521CD2B20A70022A00D10B70084A8C
:108CD0000B780C3252F8232002608868104420F090
:108CE0007F408860012010BD0360002010BD00009F
:108CF0004823002038B5044600F00CF9002807D1BD
:108D00006946204605F0C1F8002801D10021216004
:108D100038BD000017B581B014460298009068462F
:108D200000F0BFFB002802DA0B2004B010BD0B4A94
:108D3000002352F8201001B10B700199002900D0D6
:108D40000B7042F8201001D0012C01D00020ECE77C
:108D5000002201A902A800F0E5F9E6E700230020BF
:108D60002DE9F7438CB005000BD002F03F063246E8
:108D700069460DA800F0D6F904004FF0000804D0B1
:108D8000C0E009200FB0BDE8F0830098019001A871
:108D90000D9900F0EDFA040004D19DF82F000006B3
:108DA00000D5062416F01C0F4CD04CB1042C03D176
:108DB00001A8FFF7EBFD044646F008065CB1A1E010
:108DC0009DF80A0010F0110F01D007249AE07007F7
:108DD00001D5082496E0300743D54D4F0898394611
:108DE0000E3004F086FB08983946163004F081FBFB
:108DF00008992020C8720899009800F0C7FC07461F
:108E000000220899009804F060FB089800211C30AB
:108E100004F06FFB00990120C87007B3D1F82C90C3
:108E20000022394601A803F00BFB04006AD1494631
:108E3000009800F0B1FF04000098A7F10107C76097
:108E40000BD05FE0CCBB9DF80A00C10601D504241D
:108E500058E0B10701D5C007B7D1300701D546F0BA
:108E600040060098C16A296208996962089900F071
:108E70008DFCA86008981C3000F09BFCE86000980E
:108E8000286000984FF400720021C088A8802E74DA
:108E900085F81180C5F81C8005F128008146C5F8C9
:108EA000148000F01FFFB0062ED5EE6866B36E6129
:108EB0000098A968408947020FE023E0284600F0A7
:108EC00091FA0146012800D80224481C02D0F61B62
:108ED0001CB104E00124F61B01E0BE42EED8A961FA
:108EE00084B9F00510D00098FFF7C2F970B100EB1B
:108EF0005622EA610098012349464078FFF738FE80
:108F000010B10124C5F8008020463BE70224F9E7B0
:108F100000002148F8B50446694604F0B6FF002871
:108F20000ED1217C4A060BD508060ED50098E269C1
:108F30000123407804F12801FFF768FE08B1012001
:108F4000F8BD207C00F07F002074154E216A009847
:108F500000F022FF0028F3D1656A2946E87A40F044
:108F60002000E872A268206804F0AFFA05F11C0046
:108F7000E16804F0BEFA314605F1160004F0B9FAD2
:108F8000002105F1120004F0BCFA00980121C17023
:108F900004F002FB217C01F0BF012174F8BD000048
:108FA000000021482DE9FE4F8846002119609946AE
:108FB0001546044602A904F068FF002806D1607C2B
:108FC000002803D1207C800702D40720BDE8FE8F53
:108FD0006069012742194FF0020A04F1280B82420E
:108FE00000D2C54394E06069C1056ED102994989F8
:108FF000491E11EA502612D108B1A16902E0A06809
:1090000028B900212046FFF78BFA00287DD00128DF
:109010002DD0411C54D0A061A16801B9A060207C72
:1090200000060BD50298E269012340785946FFF704
:10903000EDFDA0BB207C00F07F002074A1690298A8
:10904000FFF716F998B130440190680A009027D0D4
:10905000029932184889824201D9801B0090DDE9CB
:10906000003248784146FFF7D1FDC0B903E084F8EB
:1090700011A00220AAE7E1690198081A0099884224
:109080000AD208EB40214FF40072584600F020FE4F
:10909000207C00F07F0020740098460227E00FE05B
:1090A000E169019881420ED0E168606988420AD284
:1090B0000298012359464078019AFFF759FD10B1F3
:1090C0006774012082E70198E061A08AC0F308007C
:1090D000C0F50076AE4200D92E46204432464146C5
:1090E000283000F0F5FD207C40F08000207460699D
:1090F000B04430446061E168884200D80846E060CE
:10910000D9F80000AD1B304400E004E0C9F80000CD
:10911000002D7FF468AF207C40F0400020740020D8
:1091200054E700002DE9FF41002790460E460F60EE
:1091300000F0B7F9050003D50B2004B0BDE8F081BD
:10914000884850F825409CB13460207808F0FE062D
:1091500020B16078FFF74AFDC1070BD02770E8B255
:10916000B8466070FFF786FCC10708D00320E4E72B
:109170000C20E2E70EB1400704D40020DDE71EB169
:10918000400701D50A20D8E7002631462046FFF7E0
:1091900015F8022822D100254FEA0D0704EB05102F
:1091A00090F8F21100F5F77019B1083000F001FBEA
:1091B00000E0002047F825006D1C042DEED30025AB
:1091C00057F8256036B131462046FEF7F7FF0228F2
:1091D00001D203E003206D1C042DF1D3042809D033
:1091E00002286DD204F13B0000F0EEFAB0F5007FEA
:1091F00066D101E00120A0E704F1460000F0E4FAA6
:1092000018B904F1540000F0D4FAA06194F8405069
:10921000A570012D01D0022D52D1454394F83D0097
:109220006081E8B3411E08424AD104F1410000F0D8
:10923000CBFA2081000743D104F1430000F0C4FAC7
:10924000070004D104F1500000F0B3FA074604F11E
:109250003E0000F0B9FA010032D02389481900EB32
:10926000131297422CD3B81A6789B0FBF7F0B8B144
:1092700003274FF6F57C604500D8022740F6F57CC1
:10928000604500D80127801C3244A26231446061ED
:10929000C4E90761032F15D013B12944616200E0CE
:1092A0000EE0022F1FD000F0010100EB400001EBA7
:1092B000500000BFA16900F2FF10B1EB502F14D293
:1092C0000D203AE704F15A0000F07EFA0028F7D1A9
:1092D00020890028F4D104F15C0000F06AFA606291
:1092E00060698000E6E74000E4E74FF0FF3020616E
:1092F000E06080202071032F2CD104F1600000F089
:1093000063FA012826D1711C204600F045FD08BBF8
:1093100084F8048004F22E2000F056FAA0F52A41C9
:10932000553917D104F1300000F043FA0E49884254
:1093300010D104F5057000F03CFA0C49884209D1BF
:1093400004F5067000F035FA206104F5077000F0AE
:1093500030FAE06003492770091F0888401C088024
:10936000E0800AE70023002052526141727241619D
:1093700073B504460568019801E0401C019001782E
:109380002F29FAD05C29F8D00021A160019800783B
:10939000202806D2802084F82B002046FFF729FBE6
:1093A0007CBD01A92046FFF70DF90028F8D1204621
:1093B000FFF740FA94F82B1028B10428F0D14907A0
:1093C000EED405207CBD4907FCD4A079C006F8D5B1
:1093D000208AC0F3080041192846303100F0D6F940
:1093E000A060DEE72DE9F04104680D4602290BD3A9
:1093F0006069A84208D920784FF0FF36012807D0CD
:1094000002282BD0032839D001263046BDE8F08150
:10941000206A05EB550700EB5721204600F0BCFC05
:109420000028F2D1C7F3080020447F1C90F8308058
:10943000206A00EB5721204600F0AEFC0028E4D162
:10944000C7F30800204490F8301048EA0120E907EB
:1094500001D00609D9E7C0F30B06D6E7206A00EB76
:109460001521204600F098FC0028CED1E8B204EB8C
:109470004000303000F0A8F90646C6E7206A00EB4D
:10948000D511204600F088FC0028BED140F2FF1024
:1094900000EA85002044303000F08BF920F070465F
:1094A000B3E710B504464FF0FF302268002A13D00E
:1094B000114600E0491C0B78212B0ED33A2BF9D131
:1094C00012F8013B303B0A2B06D28A4204D1002B12
:1094D00002D1491C1846216010BD002010BD0000BB
:1094E0002DE9F0418046024601200021FCF716FFDD
:1094F0001A4F05460E467868FDF7E4FF00280CD1A8
:10950000174CD4E9062110462A4001EA06031A4303
:1095100005D0A843B143C4E90601BDE8F081404647
:1095200002F0DEF930B1D4E9040128433143C4E943
:10953000040105E0D4E90410A943B043C4E90410D0
:10954000D4E9060128433143C4E90601A1687868DB
:10955000BDE8F0410022FDF771BF00009C27030029
:109560002823002000B587B01C2001F036FA042023
:1095700001F033FA1D2001F030FA0023032000939C
:109580001A461946019301F086F90C4B0DF1080CAF
:109590000FCB8CE80F001E208DF808001B208DF8E3
:1095A0000A001F208DF80900044800231A4602A96A
:1095B000103800F087FE07B000BD0000A8130300BC
:1095C0000146034802888A4200D00020704700000C
:1095D000184100202DE9FC5F0E008346DDE90C47B1
:1095E000C6F1000098469246814600D408460125FF
:1095F00003E000BF90FBFAF06D1C5045FADAA84575
:1096000000D9454624B1002E01DB780700D5641E41
:10961000B80702D5B8F1000F0AD0F80708D13CB15D
:10962000A54205D220215846641EFEF7D1FCF6E77C
:10963000002E02DA4E462D2102E0780703D52B21B9
:109640005846FEF7C5FC07F0030002280BD1B8F11D
:10965000000F08D13CB1A54205D230215846641E06
:10966000FEF7B6FCF6E7CDE90047434652463146E1
:10967000584604F0EBFABDE8FC9F000070B50D46BB
:10968000044600684FF4887102F00AF84FF49071B4
:10969000206802F005F84FF49271206802F000F89B
:1096A0004FF4A271206801F0FBFF20681249C0F856
:1096B000041320686907000B40B2090E002806DA7F
:1096C00000F00F0000F1E02080F8141D03E000F12D
:1096D000E02080F8001420680121000B40B200F067
:1096E0001F0291404009800000F1E020C0F8801284
:1096F000C0F8001170BD00001003020002460020F7
:109700001268930702D0530702D47047500714D54C
:1097100002F00300012802D002280CD105E0C2F3B8
:1097200083100B68801C184404E00223086803EBD4
:1097300092521044086001207047086800EB925371
:10974000C2F38910401CEEE7F0B58488A518944256
:1097500000D82246A41AC288D6189A4200D81346C6
:10976000D21A4B880788BB420CD34088834209D861
:109770008888A04206D3A84204D8C888904201D362
:10978000B04201D90020F0BD0120F0BD70B5064601
:109790000D4601F11A0000F017F80446307803284E
:1097A00005D105F1140000F00FF844EA004420460A
:1097B00070BDC178827842EA01214278007842EA9D
:1097C000012140EA012070474178007840EA0120F9
:1097D000704730B58FB005461C216846FCF7CBFDBD
:1097E00000249DF80000019440F00A008DF800006C
:1097F0000394049405940694A87C8DF8360041F2F5
:109800002550ADF834000C949DF83000142120F060
:109810000F00401C20F0F00010308DF830009DF853
:10982000310020F00F00401C20F0F00010308DF8C7
:1098300031009DF8320020F00600801C20F0190055
:109840008DF8320007A8FCF796FD0DA807900CA82C
:1098500008900120ADF82400ADF82640ADF82800AE
:109860000B942888AB1C07AA6946AADF0FB030BD4D
:1098700070B50B4C03254FF0020032B1FEF74EFBE2
:10988000208808A105EB004005E0FEF73FFB20889B
:1098900009A105EB0040BDE8704001F00DBB0000E0
:1098A000142400205265636569766564204C454444
:1098B000204F4E21000000005265636569766564A3
:1098C000204C4544204F46462100000017210180CE
:1098D00041800021017141711B218171C17170476B
:1098E0002DE9F047394E002780463D46DFF8E090ED
:1098F000D6F804A057E003D00446D0F81C8035E029
:1099000099F8002002EB4201521CD2B289F80020E3
:1099100009EBC10199F80230091D9A4201D189F879
:10992000005048680A780446012A12D0022A02D060
:10993000032A3BD108E003F039FF00B10127257469
:1099400034E00574C06900E070680028F9D17060E7
:109950002CE0207C50BB88686060C868A060086903
:10996000E0604869A061F07800B165606268B16844
:10997000184B501A20F07F40984202D2A168084448
:1099800006E0881AA16820F07F40814202D9081AB7
:10999000206000E0256065600120A56020742046FD
:1099A000E56103F0E5FEB8F10000A4D199F80010DC
:1099B00099F801008142A3D117B97168514502D0CD
:1099C0000120BDE8F0870020FBE7000048230020CD
:1099D000E4420020FFFF7F002DE9FF4100262348DD
:1099E00000F064FA2148001F074600F05FFA204C9F
:1099F00060680090A56800E000986946284004EB84
:109A000080000C30FFF77AFE0028F5D101AA0099FA
:109A100001EA050304EB8303491CDB6842F82030AC
:109A2000401C00910228F2D3019800F003000128A5
:109A30000BD0022810D10198032101EB905000991E
:109A4000BDF80A6001EB900005E00198BDF80A60DE
:109A5000C0F3831008440090384600F024FA08B19F
:109A60000098606004B03046BDE8F0817C49002079
:109A70006445002088B04FF40041002001F086FAD0
:109A800008B1FDF78BFB01F0F9F80120FEF714FA9D
:109A9000FDF7AAFC08B1FDF781FB40F266620121E7
:109AA0004F48FDF701FB08B1FDF778FB01F08CFB97
:109AB00008B1FDF773FB01F011FD08B1FDF76EFB76
:109AC000002469460120009401F0C0FB08B1FDF7B5
:109AD00065FB684601F03EFC08B1FDF75FFB9DF8B1
:109AE000080040A120F00F00401C20F0F0001030D2
:109AF0008DF808000F2202A87CDF08B1FDF74EFBAD
:109B000000945020ADF80000A0200194ADF80200B0
:109B1000ADF804404FF4C870ADF8060068467ADF2F
:109B200008B1FDF73BFB0021324800F048FA08B1CC
:109B3000FDF734FB304801A9CDE900402D48143031
:109B400000F0FDFA08B1FDF729FB2A492B48283916
:109B5000C860084603F0FEFA294800902548694687
:109B60001838FEF723F808B1FDF718FBFDF710FAD7
:109B70001C216846FCF7FFFB4FF42020CDE9004094
:109B8000801002901F48059003251F488DF80C5047
:109B90000690ADF80E408DF810406846FDF72AFE9D
:109BA00008B1FDF7FBFA194819A1008805EB004040
:109BB00001F082F9FDF73EFA03F05CFD02F0C8FC0B
:109BC00019A11DA004F0A2F920A125A004F09EF97E
:109BD00001F062F80028FBD101F00AFBF8E7000071
:109BE000CC22002053616665436974795F736372A8
:109BF00065656E004C24002035B2020069870200C2
:109C00007198020079C00200D3840200142400205D
:109C1000426C696E6B79206578616D706C6520733C
:109C20007461727465642E00436F75636F75207480
:109C30006F6920210A0000005C466F6C6465725CED
:109C4000746573742E747874000000007261636927
:109C50006E6520777269746520746573740A0000FC
:109C6000626173652E7478740000000070B514464C
:109C700082880E4605462088111D0144921C994297
:109C800001D8FE2A01D90C2070BD521C3254208804
:109C9000FF21401C80B2208031542088401C80B2BB
:109CA00020808119288803F0CBFF2188084480B2E6
:109CB0002080AA8842B1A96841B13044FCF742FB38
:109CC0002088A98808442080002070BD072070BD2E
:109CD000002A05D011F8013B00F8013B521EF9D1D2
:109CE000704700005FFA81F100F8011B521EFBD1A2
:109CF00070472DE9F047C7880446181D1646894667
:109D0000B0FBF7F1B0FBF7F207FB12009A193A44E7
:109D1000D21CB2FBF7F2DDF820A001E02468491E56
:109D20000029FBD13D1A8846B54216D818E0BAF191
:109D3000000F05D0211809EB08002A46091D04E090
:109D4000204409EB08012A46001DFCF7FBFA00201D
:109D50002468761BA844B74201D9354600E03D4649
:109D6000002EE4D1BDE8F08730B5024659B101F0CC
:109D700039F90021074C09E004EB810315685B8881
:109D8000AB4202D11160002030BD491C8142F3D3A7
:109D9000052030BDE823002070B50446C06A0D469A
:109DA0000026A8420FD0204603F03AFC06000AD154
:109DB000607801232A4604F13001FEF7D9FE08B18C
:109DC000751E0126E562304670BDF8B50F46017874
:109DD00014460546012901D1687830B12088821CDB
:109DE0009A422DD8012902D006E00720F8BD6978F3
:109DF0000144891C994223D8181A801E86B2ADF8F6
:109E000000602188B81C084469467DDF0028EDD138
:109E10002878022805D1BDF80010B14201D80921E7
:109E20000AE00821012805D16878B04202D8ADF8CF
:109E3000000001E0ADF80060BDF80000FE2801D987
:109E40000C20F8BD2288401CB8542088401C80B2E9
:109E5000208039542088401C2080BDF80010084420
:109E600020800020F8BD01F01F0301229A40D24358
:109E7000490900EB8100114600F021B84A0950F869
:109E8000220001F01F0201219140084000D0012072
:109E9000704701F01F0301229A40490900EB81003D
:109EA000114600F01CB8002100F00FB8012100F0AD
:109EB00016B808B56A46FCF7E0F9009808BD08B581
:109EC0006A46FCF7C0F9009808BD08B56A46FCF779
:109ED000BAF908BD08B56A46FCF79CF908BD08B593
:109EE0006A46FCF7A3F9009808BD08B56A46FCF776
:109EF000D1F9009808BD38B5044600258DF800500A
:109F00006846FDF7EFFA21686268086890420ED94A
:109F1000401E08600178A38AE26801FB0325227ACB
:109F20002168101AC0B20A79824200D208719DF8E5
:109F30000000FDF7FBFA284638BD38B5054600207D
:109F40008DF800000C466846FDF7CCFAE868A98A4F
:109F5000201AB0FBF1F12A681068431C13600170ED
:109F60009DF80000FDF7E2FA38BD10B530B1017A76
:109F700042680368891AC9B21A6006E00E2010BD53
:109F800003681A68541C1C601170491EC9B2F7D2CC
:109F9000006800210171084610BDC20800F00703E7
:109FA0000120895C98400840704710B5C20800F055
:109FB0000703885C01249C402043885410BD10B5E1
:109FC00060B10161172120F8021B20F8021B1B2140
:109FD00000F8021BFFF77AFC002010BD0E2010BD18
:109FE000F0B5858893B00C46002D39D10188002644
:109FF0003E4F24293BD006DC102909D011290CD072
:10A00000232958D14FE03A290BD0552953D129E0C3
:10A010000146204602F03EF84DE0A01DFFF756FC39
:10A0200049E02246408934F8061F814200D808469C
:10A030006080172800D217206080106970B16079A5
:10A0400060B1D7E90001CDE90301ADF80E50608899
:10A05000ADF81000136903A9104698476671267180
:10A0600013B0F0BD0146204602F064F823E0011D64
:10A070002C2206A8FCF766F9BDF81800BDF81C20D4
:10A0800004EBC0014A732269AAB1D7E90423CDE9E0
:10A090000423ADF81200487B8DF814002269204695
:10A0A00004A9904707E0017A207B884200D201464C
:10A0B0002846FEF7F9FAA07A0028D1D0E188284690
:10A0C000A5DF012570B11128CAD001F0C9FA0246F6
:10A0D000074808A1008813B005EB0040BDE8F04038
:10A0E00000F0EEBEA672E572BAE700006427030036
:10A0F000E823002073645F626C655F67617474635A
:10A100005F65786368616E67655F6D74755F7265C2
:10A11000717565737428292072657475726E656433
:10A120002025732E0000000020B10278DE2A03D023
:10A13000082070470E20704741800020704760B1B2
:10A1400059B10278DE2A0AD009684160DE21017027
:10A150004FF6FF714180002070470E2070470820A5
:10A1600070477FB5054600294DD0002D4BD00878AB
:10A170000C46DE2847D1A8886188884202D1204653
:10A1800003F0F2FD2888012825D002283BD01128B1
:10A190003AD0512837D135F8040F6188884232D13E
:10A1A000A978A81C02292ED1017A042903D00629F6
:10A1B00001D0052927D10021009102228DF800202D
:10A1C00001914FF4C07202910391ADF80420007A1E
:10A1D00005280FD010E0297A2046012913D1A9883B
:10A1E000428891420FD10121017204B0BDE8704054
:10A1F00003F0BABDADF8041028886946B0DF002826
:10A2000001D0616888477FBDA88861888842FAD1FB
:10A210004FF6FF7060807FBD03681B69184700F12F
:10A2200080400068002800D00120704708B500F188
:10A230008040002101600068009008BD2DE9F041D8
:10A24000040007D0044E4FF47A47751C3846A847DF
:10A25000641EFAD1BDE8F0819013030070B50B4C79
:10A26000207808B185250FE00020A06060602061A3
:10A27000E060074801F030FA054601F089F908B9B5
:10A2800001F014FA01202070284670BDC041002062
:10A290005582020038B500258DF800506846FDF75C
:10A2A00021F9074CE068401EE060E06810B901F059
:10A2B00023FAA5709DF80000FDF738F938BD0000BD
:10A2C000C041002030B41C460378064D45F82320D9
:10A2D0000C3545F8234002B1034A30BC001D01F0A3
:10A2E00079BB0000D44100201DD202001FB5001D23
:10A2F000069C8DE81E000022694601F071FC04B046
:10A3000010BD0000F0B505460478154889B0164622
:10A3100040F82420124A0869121DA2F1080742F8E9
:10A320002400487F385520226846FCF70BF8049437
:10A330002878385C48B10EB10A4A00E0002269462C
:10A34000281D01F0B5FD09B0F0BD0EB1064A00E0D0
:10A350000022694605F10C0001F07CFCF3E70000E7
:10A36000102300201DDB020069D902000FB408B5DC
:10A370000399002904D004AA00926A4600F00FF85D
:10A3800001B05DF814FB10B582680446002A05D0C0
:10A39000D4E90403216898470020A06010BD2DE98E
:10A3A000FC4791460C00804676D014F8011B39B169
:10A3B00025290ED04046FDF70BFE20780028F4D169
:10A3C00098F80C00002867D04046BDE8FC47FFF72E
:10A3D000DABF0020012221782B291BD02D2902D0A1
:10A3E000302908D102E040F0010001E040F0020015
:10A3F000641C002AEFD100252A290ED02178A1F172
:10A4000030020A2A11D205EB850201EB4205641CD9
:10A41000303DF1E740F00400EAE7D9F800100B1DE9
:10A42000C9F800300968641C0D44217800232E29E6
:10A430000BD114F8011FA1F130020A2A05D203EB57
:10A44000830201EB4203303BF3E76C290DD068290E
:10A450000BD0692921D00BDC252918D0582931D0FF
:10A4600063290ED0642915D117E014F8011FECE719
:10A47000702969D0732932D075291BD0782909D168
:10A4800020E0D9F80000011DC9F80010017840460D
:10A49000FDF79EFD641C90E76CE0D9F800100A1DE2
:10A4A000C9F800200968CDE900500A224046FFF7AC
:10A4B00091F8EFE7D9F800100A1DC9F800200968E3
:10A4C0000A2206E0D9F800100A1DC9F80020096820
:10A4D0001022CDE90050404603F0B8FBDAE7D9F886
:10A4E000001000270A1DC9F800200E68C00705D11A
:10A4F00012E04046761C7F1CFDF76AFD317800298A
:10A50000F7D104E0202140466D1EFDF761FDBD42FC
:10A51000C0D9002DF6D1BDE74EB13046FBF736FF6E
:10A52000074604E0202140466D1EFDF751FDBD4267
:10A5300006D9002DF6D103E04046761CFDF748FD14
:10A5400031780029F8D1A5E7D9F80000011DC9F834
:10A550000010056830214046FDF73AFD782140465D
:10A56000FDF736FD08200021CDE900010346102249
:10A570002946B0E7BDE8FC872DE9FF5F0C46B1F93D
:10A580000450C169904683469A462288A0880026D6
:10A590008B88121A3746934206DB62884988101A64
:10A5A0004FF00109814277DA072004B0BDE8F09F3F
:10A5B000BAF1000F72D02188881B01D44A1B33D511
:10A5C000701CCDF80090CDE90180084483B260880A
:10A5D0000021401B82B2584601F015FFCDE90098DA
:10A5E0002188681C0390084483B260880021801B86
:10A5F00082B2584601F007FFCDE900982188039800
:10A60000084483B260880021304482B2584601F089
:10A61000FAFECDE9009821880298084483B2608848
:10A620000021284482B233E009EB4601CDF80090C6
:10A63000CDE901818BB26188491B8AB281B258464B
:10A6400001F0E1FE09EB4500CDE9009883B20390EB
:10A650006088801B82B22088401B81B2584601F07E
:10A66000D2FECDE90098039883B26088304482B26C
:10A670002088401B81B2584601F0C5FECDE9009804
:10A6800060880299284482B220888BB2801B81B2F4
:10A69000584601F0B8FE51E061E0FFE760884346AC
:10A6A000284482B22088304481B2584601F0ACFD83
:10A6B00060884346284482B22088801B81B2584675
:10A6C00001F0A2FD60884346304482B220882844CD
:10A6D00081B2584601F098FD60884346304482B20A
:10A6E0002088401B81B2584601F08EFD60884346A9
:10A6F000401B82B22088801B81B2584601F084FD45
:10A7000060884346401B82B22088304481B258465C
:10A7100001F07AFD60884346801B82B22088401B8E
:10A7200081B2584601F070FD60884346801B82B2BA
:10A730002088284481B2584601F066FD002F07DCCE
:10A74000761C36B207EB4600401C07B2002F06DD30
:10A750006D1E2DB2684207EB4000401E07B2B542A5
:10A76000BFF626AF002020E70069004710B5044679
:10A7700000688047002802D1E2690121117010BDF4
:10A780002DE9FE4F814608880C9DADF80800D9F8E8
:10A790001C0088464C88418828781F46081A934632
:10A7A000A04202DA0720BDE8FE8F00264FF00A0A19
:10A7B0002BE00A2A2ED0CDE9004B02AB29464846B1
:10A7C00003F000FCB95D6878081AC0B220292CD0CB
:10A7D000696811F8200000BFD9F81C108A88121A85
:10A7E000BDF8080082420FDA0D9888B1B8F8000071
:10A7F000ADF8080028784988B0FBFAF222440244F8
:10A8000094B2081AA04203DB761CBA5D002AD0D1AC
:10A810000020C8E7B8F80000ADF808002878B0FBC1
:10A82000FAF12144084484B2CCE728784008D3E701
:10A8300030B4C5690346A8796A8810F0010FA8886A
:10A840000AD004461046A97141B101290BD0022952
:10A8500004D003290BD106E01446F4E7DA695480EA
:10A86000DA69908003E0DA695080D86984805A6997
:10A8700030BC084610471CB5C3695A889B88CDE98F
:10A8800000210022114601F0BEFD1CBDC26900215D
:10A8900011704068004770B541EA4201DDE9045695
:10A8A0004FF0A04441EA830141EA052104EB800016
:10A8B00041EA0641C0F8001770BD70B541EA420197
:10A8C000DDE904564FF0A04441EA830141EA052145
:10A8D00004EB800041EA0641C0F8001770BD70B576
:10A8E00041EA4201DDE904564FF0A04441EA830108
:10A8F00041EA052104EB800041EA0641C0F8001757
:10A9000070BD70B541EA4201DDE904564FF0A04444
:10A9100041EA830141EA052104EB800041EA064156
:10A92000C0F8001770BD70B541EA4201DDE9045678
:10A930004FF0A04441EA830141EA052104EB800085
:10A9400041EA0641C0F8001770BD70B541EA420106
:10A95000DDE904564FF0A04441EA830141EA0521B4
:10A9600004EB800041EA0641C0F8001770BD70B5E5
:10A9700041EA4201DDE904564FF0A04441EA830177
:10A9800041EA052104EB800041EA0641C0F80017C6
:10A9900070BD1CB5002100910B4601220191FFF70B
:10A9A000B0FF1CBD1CB5002100910B460122019196
:10A9B000FFF7B9FF1CBD1CB500220B4600921146E3
:10A9C0000192FFF79EFF1CBD1CB500220B460092B2
:10A9D00011460192FFF7A7FF1CBD1CB50021009195
:10A9E0000B46012201911146FFF755FF1CBD1CB516
:10A9F000002100910B46012201911146FFF781FFD2
:10AA00001CBD1CB5002100910B460122019111468D
:10AA1000FFF789FF1CBD1CB5002100910B460122E8
:10AA200001911146FFF791FF1CBD4FF0A04202EBD0
:10AA30008000D0F8002722F44032C0F80027D0F878
:10AA4000002742EA0141C0F8001770474FF0A042CA
:10AA500001218140C2F80C1570474FF0A04201213E
:10AA60008140C2F8081570474FF0A0420121814093
:10AA7000C2F8081570474FF0A04201218140C2F88A
:10AA80000815704701224FF0A043824011B1C3F86E
:10AA900008257047C3F80C257047000018B5084B0F
:10AAA0006C4601441B68009306E000BF54F8203058
:10AAB000D3F81035401C08C28142F7D818BD0000F9
:10AAC0008C270300034908B5084400210160006891
:10AAD000009008BD0060004002494058012800D0A5
:10AAE000002070470060004030B5124B0146002046
:10AAF000D3F81044224609E0157A854205D1401C5E
:10AB00000A28F7DB4FF0FF3030BD5268002AF3D13E
:10AB1000421CF9D00872D3F810242AB152684A6056
:10AB2000D3F81024516030BD0022C3F810144A60DD
:10AB300030BD000064450020F0B595B01C461546B8
:10AB40000F4608461A9E00F01DFB182109A8FBF7C6
:10AB500012FC0E96CDE909540023082203A93846B9
:10AB600000F025FB05980690BDF81000ADF81C001C
:10AB7000BDF81200ADF81E0000208DF821000398EA
:10AB8000082600F00300012802D0022818D032E085
:10AB900003983346850AC0F3C2008DF8200003985D
:10ABA0000FA9C0F38314A200384600F000FB09A8E7
:10ABB000009006AB22460FA9284600F03FFA1AE0A3
:10ABC0000398840DC0F3C2008DF82000082C01D238
:10ABD000254600E0082533462A460FA9384600F0EE
:10ABE000E6FA2E44641B09AB06AA29460FA800F01A
:10ABF00077F9002CEAD1384600F0CAFA15B0F0BD5A
:10AC00007047012002F0CEBE084810B50178084A0E
:10AC1000515C19B1001D01F0D7F902E00C3001F0D0
:10AC2000E5F8BDE81040002002F0BCBE7023002013
:10AC30000C23002008B5034A00924023024AFFF784
:10AC40007BFF08BD75CF0200644400200A4A012939
:10AC500002EBC00007D0022907D0032907D004293E
:10AC600007D0002070470220704704207047007909
:10AC700070474079704700004C32030010B5FFF771
:10AC8000C0FF04210348FFF72FFF0249012048724B
:10AC900010BD0000842300202DE9F04F8DB0FDF79A
:10ACA000A7F918B100200DB0BDE8F08F7A4C4FF035
:10ACB000000BC4F818B4BFF34F8F60680290A5680A
:10ACC000D846284004EB800008E0216802988142C1
:10ACD00001D86160E6E7284004EB80000C3002A94F
:10ACE000FEF70CFD0028F0D105AA029901EA050340
:10ACF00004EB8303491CDB6842F82030401C0291BE
:10AD00000228F2D3059800F00300022802D001289F
:10AD10004ED0A9E005985022810D8946B2EB905F94
:10AD200000D850210E4666F39F50059008315B48CD
:10AD300000F0DFF9070079D000F024FA434608223A
:10AD400005A9384600F039FA029908F1080A2940A5
:10AD5000681A8000001D864223D94F4D0C3530B152
:10AD6000C2B204EB8101301A90460C3104E029464E
:10AD7000F2B2002590462846C6B25346384600F047
:10AD80001CFA0AEB08032DB1324629464FEA0700A8
:10AD900000F013FA029909F1030001EB9000029010
:10ADA0003BE004EB81015346324638460C31EFE775
:10ADB0000598C0F38310062800D30620059960F398
:10ADC0008911C1F38310801C05918100334800F084
:10ADD00090F9070048D000F0D5F94346082205A9AC
:10ADE000384600F0EAF908F1080800260FE002985A
:10ADF000434600EA0501401C04EB81010290042255
:10AE000038460C3100F0D9F908F10408761C059891
:10AE1000C0F38310B042EAD847B1D4F81054D4F844
:10AE2000180468B1384600F0B3F92FE01CE0687AE6
:10AE3000012804D12A6828463946126890476D686F
:10AE4000002DF4D1384600F0A3F98DF800B0684623
:10AE5000FCF748FBD4F8180408B9029860609DF824
:10AE60000000FCF763FB11E0D4F8104404E0216813
:10AE70002046896888476468002CF8D10848022178
:10AE8000008801EB004007A100F016F8FDF7B0F8CC
:10AE900080F0010007E7000064450020C432030091
:10AEA000142400204261636B656E647320666C75C8
:10AEB000736865640000000000231A4602F026BB98
:10AEC00008B5012300926A4602F020FB08BD1CB5BC
:10AED000CDE9002302236A4602F018FB1CBD0000E6
:10AEE0002DE9F0470E4680461C46924608293ED87A
:10AEF00094F80C90002020731946104601F0B6F922
:10AF00000025B54206D218F805201AA12046FFF701
:10AF10002DFA03E019A12046FFF728FA6D1C082D31
:10AF2000EFD317A12046FFF721FA0025B54210D232
:10AF300018F80570FBF702FA0068C05D10F03E0FCC
:10AF400001D03A4600E02E220EA12046FFF70EFA6D
:10AF500003E00DA12046FFF709FA6D1C082DE5D38B
:10AF600001222146504601F063F984F80C90BDE8B7
:10AF7000F0870000202530327800000020202000DB
:10AF80007C0000002563000020000000104810B580
:10AF9000FF218160002101604160C0F81814C0F8F1
:10AFA000141480F820140B4800F0F0F800280DD19C
:10AFB00009480A490A4B401AC108002003E000BFB3
:10AFC00023F82000401C8842FAD3002010BD000066
:10AFD00064450020C4320300C43203004C32030035
:10AFE000E823002002480349401AC00870470000C7
:10AFF000C43203004C32030013B56846FEF7B4FEBA
:10B0000008B100201CBD0248009950F831001CBD59
:10B010004C32030070B508480125D0F8104480F880
:10B02000205405E0657221682046496888476468B5
:10B03000002CF7D170BD0000644500202DE9FF47CA
:10B0400081460C9D00200C462F7B2873984616469F
:10B050002946184601F00AF9072E42D2DFE806F029
:10B0600004090F161F2A360049462846FFF77EF9C5
:10B0700037E0494628462268FFF778F931E0D4E9FD
:10B08000002349462846FFF771F92AE0A06800909E
:10B09000D4E9002349462846FFF768F921E0D4E9BE
:10B0A0000201CDE90001D4E9002349462846FFF713
:10B0B0005DF916E004F1080007C88DE80700D4E93F
:10B0C000002349462846FFF751F90AE004F1080039
:10B0D0000FC88DE80F00D4E9002349462846FFF742
:10B0E00045F900222946404601F0A2F82F73BDE839
:10B0F000FF872DE9F041858A80462D1F4819C01C25
:10B10000B0FBF5F0C6B24046FEF7F5FE041E19D0BE
:10B110000020207101206071E58000272546761E01
:10B12000C4F800800BE04046FEF7E5FE60B16179AF
:10B13000491C6171286005467F1CC0F80080B74239
:10B14000F1D32046BDE8F081204600F002F800204F
:10B15000F8E72DE9F041457901466B1E002201E038
:10B160000968521C9A42FBD30F680146002605E08D
:10B1700038460C68FEF7E1FE2146761CAE42F7D356
:10B18000BDE8F0810121001DFEF793BEFEF7EDBE84
:10B1900010B504460121001DFEF7A7FE10F0FF0FB9
:10B1A00004D12046BDE81040FFF7D3BF10BD38B52D
:10B1B00001240094FEF79DFD38BD38B500240094AD
:10B1C000FEF797FD38BD0000064910B50020487015
:10B1D000091D0860BFF35F8F0349044800F0FCF9C4
:10B1E000002010BD5C230020E0270300FC4300206A
:10B1F00008B500208DF800006846FCF773F9F1EE01
:10B20000100A20F09F00E1EE100ABFF35F8F08499B
:10B210004020C1F880029DF80000FCF787F900F09B
:10B22000B7F908B141DF08BD20BF40BF20BF08BD4E
:10B2300004E000E0FBF7B2BF20B1034909680160F8
:10B24000002070470E2070475C2A0300FEB50246BE
:10B250000E460846FFF7F0FF00286ED10024009448
:10B260000194012506208DF80020ADF80400029419
:10B270008DF8025069462020326869DF2F4F48B1AF
:10B2800000F0EEF93988024605EB01432C491846D7
:10B29000FFF716FE00948DF801508DF802400194DE
:10B2A00002948DF8034069464020326869DF40B15E
:10B2B00000F0D6F902463888224905EB0040FFF736
:10B2C000FFFD00940A208DF8000001940294694665
:10B2D0000120326869DF48B100F0C2F939880246BE
:10B2E00005EB014318491846FFF7EAFD4FF4B0603B
:10B2F0000090019402946946A120326869DF40B150
:10B3000000F0AEF902463888104905EB0040FFF71F
:10B31000D7FD0094019402948DF800406946A02066
:10B32000326869DF40B100F09BF90246388808496D
:10B3300005EB0040FFF7C4FD0020FEBD1C240020EB
:10B34000103103005831030070300300BC3003009B
:10B350001C3003002DE9F0410446D0F8008060DF86
:10B360002168194D074641451CD92888022606EB5D
:10B37000004016A1FFF7A0FD2888424606EB0040DA
:10B380001EA12368FFF7A3FDF006D0F80C01216889
:10B39000800200F10050421A288825A106EB0040E7
:10B3A000FFF78EFD012467B1384600F059F90246D7
:10B3B00028882AA104EB0040FFF782FD3846BDE84B
:10B3C000F0812E480470F9E71C240020496E737543
:10B3D0006666696369656E742052414D20616C6CCC
:10B3E0006F636174656420666F72207468652053B2
:10B3F0006F66744465766963652E00004368616E0C
:10B400006765207468652052414D207374617274C1
:10B41000206C6F636174696F6E2066726F6D20308F
:10B4200078257820746F20307825782E0000000071
:10B430004D6178696D756D2052414D2073697A6553
:10B4400020666F72206170706C69636174696F6EE1
:10B4500020697320307825782E00000073645F62C5
:10B460006C655F656E61626C652829207265747514
:10B47000726E65642025732E00000000E323002017
:10B4800030B5144891B00078002820D05FF0340522
:10B49000ADF8405010A903A861DF30B1052816D0DF
:10B4A00011B0BDE83040FBF779BE03AC0A496846ED
:10B4B00000F092F807E000BFD0E900212046904755
:10B4C000684600F0A0F802980028E1D0F4E711B037
:10B4D00030BD0000E3230020602A03007CB5204C2F
:10B4E000207808B108207CBD0120A070002001F068
:10B4F0000BFD112819D0002001F01EFD194800266F
:10B50000006801908DF800606846FBF7EBFF164974
:10B5100001A810DF05000AD0002020709DF800006F
:10B52000FCF704F82DB128467CBD00207CBD01202D
:10B53000F3E7A67066700721162001F097F808B1AE
:10B54000FBF72CFE0721152001F090F808B1FBF75E
:10B5500025FE01F03BFE012001F0EEFCE5E70000D6
:10B56000E0230020F4290300217102000EB50749F1
:10B57000684600F031F805E0D0E9001088476846D9
:10B5800000F041F802980028F6D10EBD102A030001
:10B590000148007870470000E02300201FB568468E
:10B5A0004BDF30B1052814D004B0BDE81040FBF7E4
:10B5B000F5BD084901A800F00FF806E0D0E9002128
:10B5C0000098904701A800F01EF803980028E6D0E4
:10B5D000F4E71FBD7C2A0300016009684160AFF3F6
:10B5E000008010B5D0E900215368994201D10021B3
:10B5F00004E0D1E90034A34202D01946816010BDB5
:10B6000008314160F0E7816800290BD00268926838
:10B610000A44826041684B689A4203D10831416014
:10B62000FFF7DFBF704700000C4A10B502F59473B6
:10B630000EE0991AC91001EBD171491002EBC1015A
:10B640000C68844201D90B4602E005D201F10802E0
:10B650009A42EED3002010BD486810BD00280300B8
:10B6600000B5FFF7E1FF002800D1014800BD000050
:10B67000EC2703004058002800D00120704708B58F
:10B68000002242504058009008BDD0F80403084002
:10B6900000D0012070474058002800D0012070479A
:10B6A00008B5002242504058009008BD0848006884
:10B6B000012110F0010F08D14FF0E020E02280F8C6
:10B6C0000024C0F88012C0F80011024801607047E1
:10B6D00000E100E0180500400649024600200B7911
:10B6E0000BB1852070470A6001220A7100224A715D
:10B6F0007047000018230020044901200860044816
:10B700000168C1F300410029FAD170470C000040E4
:10B7100018040040002802D0014980010847704702
:10B72000B127030010B5044600F056FD28B12046AD
:10B73000BDE810400021FFF778B9204600F058FD21
:10B7400000280FD02046FCF731FD074A02EB8001AC
:10B75000D1F8103523F00103C1F8103501218140E3
:10B76000C2F8081310BD0000006000402DE9F04150
:10B770008846054600F030FD234E002828461AD0A2
:10B78000FCF714FD304490F848008009032802D0EB
:10B7900001280ED007E04FF0A040D0F81005E84097
:10B7A00010F0010F05D003212846BDE8F041FFF756
:10B7B0003CB90221F8E700F01BFD002822D0284602
:10B7C000FCF7F4FC04464FF4807000EB84000F4F4C
:10B7D00081B207EB8400D0F8102542F00102C0F8D6
:10B7E00010250846FFF76EF9B8F1000F0AD0284679
:10B7F000FCF7DCFC56F82000002803D00120A04014
:10B80000C7F80403BDE8F081EC410020006000406F
:10B810002DE9FC41DFF8BC80044608EB040000275A
:10B8200090F930001346C0170E46401C01D008277F
:10B830004CE0B0781946C0F340022046FCF792FC79
:10B840000546401C41D0B078410719D4C0070AD042
:10B850004FF0A04000EB8401D1F8000720F0020077
:10B86000C1F8000707E000217378204600910A46DE
:10B870000191FFF734F8174920465431FEF795FB44
:10B88000B078800718D51448317800EB8500D0F8DF
:10B890001025124B1A40C0F810254FF4F8524FF4FF
:10B8A000403302EA042203EA01410A43D0F81015AA
:10B8B0000A43C0F8102509E008EB0500327810F8BB
:10B8C000481F41EA8211017000E004273846BDE8B4
:10B8D000FC810000EC41002000600040FFE0FCFF24
:10B8E0004FF0A041D1F81015C14011F0010000D077
:10B8F0000120704770B5184D95F8580008B1082020
:10B9000070BD0020411E2A18401CC0B282F83010C1
:10B910002028F8D300242046FCF716FC641CE4B26F
:10B920000C2CF8D300240D49E0206C6581F800044C
:10B9300001264020891FC1F88002C1F800014FF4A0
:10B94000BE70FFF7BFF80649F007C1F8040385F899
:10B950005860204670BD0000EC41002006E000E089
:10B9600000600040034890F85800002800D00120F3
:10B9700070470000EC4100200121B1EB507F01D164
:10B98000012070470020704738B50D4600F0BAFC22
:10B99000040014D000208DF800006846FBF7A2FDDB
:10B9A000207928B19DF80000FBF7C0FD112038BDBB
:10B9B0000120256020719DF80000FBF7B7FD0020F5
:10B9C00038BD10B500F09EFC002802D000210160B7
:10B9D000017110BD2DE9FC5F064600790C46154645
:10B9E00000EB400101EBC0026049984601EB820781
:10B9F000397F11B10820BDE8FC9F5D4951F8201046
:10BA00003068FFF7C1FF08B11120F4E7C7E900581B
:10BA1000207B4FF0A04B4FF00109012805D8227878
:10BA200009FA02F0CBF80C0502E02078FFF71CF8C9
:10BA30004FF0000ACDF800A0CDF804A020785346BE
:10BA400052460121FEF781FF65784FF0FF38FF2D48
:10BA500007D009FA05F0CBF80C052846FEF7DBFF06
:10BA600000E04546A078FF2809D000228046012347
:10BA7000CDF800A01146CDF804A0FEF766FF30799E
:10BA8000DFF8E8B000EB400202EBC0020BEB8200F3
:10BA9000A178C177E078FF2804D0FEF7E5FFE078D1
:10BAA000FEF7B9FF3179E07801EB410202EBC10109
:10BAB0000BEB8101887730682378C0F80835C0F82F
:10BAC0000C55C0F81085A168C0F82415237B617B54
:10BAD00001B10121012B04D0022B05D0032B08D189
